{"abi":[{"type":"constructor","inputs":[{"name":"_freedomToken","type":"address","internalType":"address"},{"name":"_admin","type":"address","internalType":"address"},{"name":"_aiController","type":"address","internalType":"address"},{"name":"_guardian","type":"address","internalType":"address"}],"stateMutability":"nonpayable"},{"type":"function","name":"AI_CONTROLLER_ROLE","inputs":[],"outputs":[{"name":"","type":"bytes32","internalType":"bytes32"}],"stateMutability":"view"},{"type":"function","name":"ALLOCATION_COUNT","inputs":[],"outputs":[{"name":"","type":"uint256","internalType":"uint256"}],"stateMutability":"view"},{"type":"function","name":"ALLOCATION_MANAGER_ROLE","inputs":[],"outputs":[{"name":"","type":"bytes32","internalType":"bytes32"}],"stateMutability":"view"},{"type":"function","name":"BASIS_POINTS","inputs":[],"outputs":[{"name":"","type":"uint256","internalType":"uint256"}],"stateMutability":"view"},{"type":"function","name":"DEFAULT_ADMIN_ROLE","inputs":[],"outputs":[{"name":"","type":"bytes32","internalType":"bytes32"}],"stateMutability":"view"},{"type":"function","name":"EMERGENCY_GUARDIAN_ROLE","inputs":[],"outputs":[{"name":"","type":"bytes32","internalType":"bytes32"}],"stateMutability":"view"},{"type":"function","name":"EMERGENCY_RESERVE_PERCENT","inputs":[],"outputs":[{"name":"","type":"uint256","internalType":"uint256"}],"stateMutability":"view"},{"type":"function","name":"MAX_AI_INVESTMENT_PERCENT","inputs":[],"outputs":[{"name":"","type":"uint256","internalType":"uint256"}],"stateMutability":"view"},{"type":"function","name":"MAX_ALLOCATION_PERCENT","inputs":[],"outputs":[{"name":"","type":"uint256","internalType":"uint256"}],"stateMutability":"view"},{"type":"function","name":"MAX_RISK_SCORE","inputs":[],"outputs":[{"name":"","type":"uint256","internalType":"uint256"}],"stateMutability":"view"},{"type":"function","name":"MAX_YIELD_ALLOCATION","inputs":[],"outputs":[{"name":"","type":"uint256","internalType":"uint256"}],"stateMutability":"view"},{"type":"function","name":"MIN_RISK_SCORE","inputs":[],"outputs":[{"name":"","type":"uint256","internalType":"uint256"}],"stateMutability":"view"},{"type":"function","name":"MULTI_SIG_THRESHOLD","inputs":[],"outputs":[{"name":"","type":"uint256","internalType":"uint256"}],"stateMutability":"view"},{"type":"function","name":"MULTI_SIG_TIMELOCK","inputs":[],"outputs":[{"name":"","type":"uint256","internalType":"uint256"}],"stateMutability":"view"},{"type":"function","name":"YIELD_MANAGER_ROLE","inputs":[],"outputs":[{"name":"","type":"bytes32","internalType":"bytes32"}],"stateMutability":"view"},{"type":"function","name":"activeYieldProtocols","inputs":[{"name":"","type":"uint256","internalType":"uint256"}],"outputs":[{"name":"","type":"address","internalType":"address"}],"stateMutability":"view"},{"type":"function","name":"aiInvestmentCount","inputs":[],"outputs":[{"name":"","type":"uint256","internalType":"uint256"}],"stateMutability":"view"},{"type":"function","name":"aiInvestments","inputs":[{"name":"","type":"uint256","internalType":"uint256"}],"outputs":[{"name":"id","type":"uint256","internalType":"uint256"},{"name":"strategy","type":"string","internalType":"string"},{"name":"targetAsset","type":"address","internalType":"address"},{"name":"amount","type":"uint256","internalType":"uint256"},{"name":"expectedReturn","type":"uint256","internalType":"uint256"},{"name":"riskScore","type":"uint256","internalType":"uint256"},{"name":"timestamp","type":"uint256","internalType":"uint256"},{"name":"executed","type":"bool","internalType":"bool"},{"name":"profitable","type":"bool","internalType":"bool"},{"name":"actualReturn","type":"uint256","internalType":"uint256"}],"stateMutability":"view"},{"type":"function","name":"allocations","inputs":[{"name":"","type":"uint8","internalType":"enum AITreasury.AllocationCategory"}],"outputs":[{"name":"category","type":"uint8","internalType":"enum AITreasury.AllocationCategory"},{"name":"percentage","type":"uint256","internalType":"uint256"},{"name":"allocated","type":"uint256","internalType":"uint256"},{"name":"spent","type":"uint256","internalType":"uint256"},{"name":"recipient","type":"address","internalType":"address"},{"name":"active","type":"bool","internalType":"bool"}],"stateMutability":"view"},{"type":"function","name":"blacklisted","inputs":[{"name":"","type":"address","internalType":"address"}],"outputs":[{"name":"","type":"bool","internalType":"bool"}],"stateMutability":"view"},{"type":"function","name":"categoryByIndex","inputs":[{"name":"","type":"uint256","internalType":"uint256"}],"outputs":[{"name":"","type":"uint8","internalType":"enum AITreasury.AllocationCategory"}],"stateMutability":"view"},{"type":"function","name":"createMultiSigRequest","inputs":[{"name":"category","type":"uint8","internalType":"enum AITreasury.AllocationCategory"},{"name":"amount","type":"uint256","internalType":"uint256"},{"name":"recipient","type":"address","internalType":"address"},{"name":"data","type":"bytes","internalType":"bytes"}],"outputs":[{"name":"","type":"bytes32","internalType":"bytes32"}],"stateMutability":"nonpayable"},{"type":"function","name":"deposit","inputs":[{"name":"amount","type":"uint256","internalType":"uint256"}],"outputs":[],"stateMutability":"nonpayable"},{"type":"function","name":"emergencyFundReserved","inputs":[],"outputs":[{"name":"","type":"uint256","internalType":"uint256"}],"stateMutability":"view"},{"type":"function","name":"emergencyPause","inputs":[],"outputs":[],"stateMutability":"nonpayable"},{"type":"function","name":"emergencyPaused","inputs":[],"outputs":[{"name":"","type":"bool","internalType":"bool"}],"stateMutability":"view"},{"type":"function","name":"emergencyUnpause","inputs":[],"outputs":[],"stateMutability":"nonpayable"},{"type":"function","name":"emergencyWithdrawal","inputs":[{"name":"to","type":"address","internalType":"address"}],"outputs":[],"stateMutability":"nonpayable"},{"type":"function","name":"executeAIInvestment","inputs":[{"name":"investmentId","type":"uint256","internalType":"uint256"}],"outputs":[],"stateMutability":"nonpayable"},{"type":"function","name":"executeMultiSigRequest","inputs":[{"name":"txHash","type":"bytes32","internalType":"bytes32"}],"outputs":[],"stateMutability":"nonpayable"},{"type":"function","name":"freedomToken","inputs":[],"outputs":[{"name":"","type":"address","internalType":"contract IFreedomToken"}],"stateMutability":"view"},{"type":"function","name":"getAllocationDetails","inputs":[{"name":"category","type":"uint8","internalType":"enum AITreasury.AllocationCategory"}],"outputs":[{"name":"percentage","type":"uint256","internalType":"uint256"},{"name":"allocated","type":"uint256","internalType":"uint256"},{"name":"spent","type":"uint256","internalType":"uint256"},{"name":"available","type":"uint256","internalType":"uint256"},{"name":"recipient","type":"address","internalType":"address"},{"name":"active","type":"bool","internalType":"bool"}],"stateMutability":"view"},{"type":"function","name":"getRoleAdmin","inputs":[{"name":"role","type":"bytes32","internalType":"bytes32"}],"outputs":[{"name":"","type":"bytes32","internalType":"bytes32"}],"stateMutability":"view"},{"type":"function","name":"getTreasuryBalance","inputs":[],"outputs":[{"name":"","type":"uint256","internalType":"uint256"}],"stateMutability":"view"},{"type":"function","name":"grantRole","inputs":[{"name":"role","type":"bytes32","internalType":"bytes32"},{"name":"account","type":"address","internalType":"address"}],"outputs":[],"stateMutability":"nonpayable"},{"type":"function","name":"hasRole","inputs":[{"name":"role","type":"bytes32","internalType":"bytes32"},{"name":"account","type":"address","internalType":"address"}],"outputs":[{"name":"","type":"bool","internalType":"bool"}],"stateMutability":"view"},{"type":"function","name":"multiSigRequests","inputs":[{"name":"","type":"bytes32","internalType":"bytes32"}],"outputs":[{"name":"txHash","type":"bytes32","internalType":"bytes32"},{"name":"requiredSigs","type":"uint256","internalType":"uint256"},{"name":"currentSigs","type":"uint256","internalType":"uint256"},{"name":"timestamp","type":"uint256","internalType":"uint256"},{"name":"executed","type":"bool","internalType":"bool"},{"name":"category","type":"uint8","internalType":"enum AITreasury.AllocationCategory"},{"name":"amount","type":"uint256","internalType":"uint256"},{"name":"recipient","type":"address","internalType":"address"},{"name":"data","type":"bytes","internalType":"bytes"}],"stateMutability":"view"},{"type":"function","name":"processedTransactions","inputs":[{"name":"","type":"bytes32","internalType":"bytes32"}],"outputs":[{"name":"","type":"bool","internalType":"bool"}],"stateMutability":"view"},{"type":"function","name":"proposeAIInvestment","inputs":[{"name":"strategy","type":"string","internalType":"string"},{"name":"targetAsset","type":"address","internalType":"address"},{"name":"amount","type":"uint256","internalType":"uint256"},{"name":"expectedReturn","type":"uint256","internalType":"uint256"},{"name":"riskScore","type":"uint256","internalType":"uint256"}],"outputs":[{"name":"","type":"uint256","internalType":"uint256"}],"stateMutability":"nonpayable"},{"type":"function","name":"renounceRole","inputs":[{"name":"role","type":"bytes32","internalType":"bytes32"},{"name":"callerConfirmation","type":"address","internalType":"address"}],"outputs":[],"stateMutability":"nonpayable"},{"type":"function","name":"reportAIInvestmentResults","inputs":[{"name":"investmentId","type":"uint256","internalType":"uint256"},{"name":"profitable","type":"bool","internalType":"bool"},{"name":"actualReturn","type":"uint256","internalType":"uint256"}],"outputs":[],"stateMutability":"nonpayable"},{"type":"function","name":"requiresMultiSig","inputs":[{"name":"amount","type":"uint256","internalType":"uint256"}],"outputs":[{"name":"","type":"bool","internalType":"bool"}],"stateMutability":"view"},{"type":"function","name":"revokeRole","inputs":[{"name":"role","type":"bytes32","internalType":"bytes32"},{"name":"account","type":"address","internalType":"address"}],"outputs":[],"stateMutability":"nonpayable"},{"type":"function","name":"setBlacklist","inputs":[{"name":"account","type":"address","internalType":"address"},{"name":"isBlacklisted","type":"bool","internalType":"bool"}],"outputs":[],"stateMutability":"nonpayable"},{"type":"function","name":"signMultiSigRequest","inputs":[{"name":"txHash","type":"bytes32","internalType":"bytes32"}],"outputs":[],"stateMutability":"nonpayable"},{"type":"function","name":"spend","inputs":[{"name":"category","type":"uint8","internalType":"enum AITreasury.AllocationCategory"},{"name":"amount","type":"uint256","internalType":"uint256"},{"name":"recipient","type":"address","internalType":"address"},{"name":"reason","type":"string","internalType":"string"}],"outputs":[],"stateMutability":"nonpayable"},{"type":"function","name":"spendingLimits","inputs":[{"name":"","type":"uint8","internalType":"enum AITreasury.AllocationCategory"}],"outputs":[{"name":"dailyLimit","type":"uint256","internalType":"uint256"},{"name":"monthlyLimit","type":"uint256","internalType":"uint256"},{"name":"spentToday","type":"uint256","internalType":"uint256"},{"name":"spentThisMonth","type":"uint256","internalType":"uint256"},{"name":"lastResetDay","type":"uint256","internalType":"uint256"},{"name":"lastResetMonth","type":"uint256","internalType":"uint256"}],"stateMutability":"view"},{"type":"function","name":"supportsInterface","inputs":[{"name":"interfaceId","type":"bytes4","internalType":"bytes4"}],"outputs":[{"name":"","type":"bool","internalType":"bool"}],"stateMutability":"view"},{"type":"function","name":"totalYieldAllocated","inputs":[],"outputs":[{"name":"","type":"uint256","internalType":"uint256"}],"stateMutability":"view"},{"type":"function","name":"yieldStrategies","inputs":[{"name":"","type":"address","internalType":"address"}],"outputs":[{"name":"protocol","type":"address","internalType":"address"},{"name":"allocatedAmount","type":"uint256","internalType":"uint256"},{"name":"currentValue","type":"uint256","internalType":"uint256"},{"name":"apy","type":"uint256","internalType":"uint256"},{"name":"lastHarvest","type":"uint256","internalType":"uint256"},{"name":"active","type":"bool","internalType":"bool"}],"stateMutability":"view"},{"type":"event","name":"AIInvestmentExecuted","inputs":[{"name":"investmentId","type":"uint256","indexed":true,"internalType":"uint256"},{"name":"success","type":"bool","indexed":false,"internalType":"bool"},{"name":"actualReturn","type":"uint256","indexed":false,"internalType":"uint256"}],"anonymous":false},{"type":"event","name":"AIInvestmentProposed","inputs":[{"name":"investmentId","type":"uint256","indexed":true,"internalType":"uint256"},{"name":"strategy","type":"string","indexed":false,"internalType":"string"},{"name":"amount","type":"uint256","indexed":false,"internalType":"uint256"},{"name":"riskScore","type":"uint256","indexed":false,"internalType":"uint256"}],"anonymous":false},{"type":"event","name":"AllocationUpdated","inputs":[{"name":"category","type":"uint8","indexed":false,"internalType":"enum AITreasury.AllocationCategory"},{"name":"newPercentage","type":"uint256","indexed":false,"internalType":"uint256"},{"name":"newRecipient","type":"address","indexed":false,"internalType":"address"}],"anonymous":false},{"type":"event","name":"BlacklistUpdated","inputs":[{"name":"account","type":"address","indexed":true,"internalType":"address"},{"name":"blacklisted","type":"bool","indexed":false,"internalType":"bool"}],"anonymous":false},{"type":"event","name":"EmergencyPauseToggled","inputs":[{"name":"paused","type":"bool","indexed":false,"internalType":"bool"}],"anonymous":false},{"type":"event","name":"EmergencyWithdrawal","inputs":[{"name":"token","type":"address","indexed":true,"internalType":"address"},{"name":"amount","type":"uint256","indexed":false,"internalType":"uint256"},{"name":"to","type":"address","indexed":false,"internalType":"address"}],"anonymous":false},{"type":"event","name":"FundsAllocated","inputs":[{"name":"category","type":"uint8","indexed":true,"internalType":"enum AITreasury.AllocationCategory"},{"name":"amount","type":"uint256","indexed":false,"internalType":"uint256"},{"name":"recipient","type":"address","indexed":true,"internalType":"address"}],"anonymous":false},{"type":"event","name":"FundsSpent","inputs":[{"name":"category","type":"uint8","indexed":true,"internalType":"enum AITreasury.AllocationCategory"},{"name":"amount","type":"uint256","indexed":false,"internalType":"uint256"},{"name":"recipient","type":"address","indexed":true,"internalType":"address"},{"name":"reason","type":"string","indexed":false,"internalType":"string"}],"anonymous":false},{"type":"event","name":"MultiSigExecuted","inputs":[{"name":"txHash","type":"bytes32","indexed":true,"internalType":"bytes32"}],"anonymous":false},{"type":"event","name":"MultiSigRequestCreated","inputs":[{"name":"txHash","type":"bytes32","indexed":true,"internalType":"bytes32"},{"name":"category","type":"uint8","indexed":false,"internalType":"enum AITreasury.AllocationCategory"},{"name":"amount","type":"uint256","indexed":false,"internalType":"uint256"}],"anonymous":false},{"type":"event","name":"MultiSigSigned","inputs":[{"name":"txHash","type":"bytes32","indexed":true,"internalType":"bytes32"},{"name":"signer","type":"address","indexed":true,"internalType":"address"},{"name":"currentCount","type":"uint256","indexed":false,"internalType":"uint256"}],"anonymous":false},{"type":"event","name":"RoleAdminChanged","inputs":[{"name":"role","type":"bytes32","indexed":true,"internalType":"bytes32"},{"name":"previousAdminRole","type":"bytes32","indexed":true,"internalType":"bytes32"},{"name":"newAdminRole","type":"bytes32","indexed":true,"internalType":"bytes32"}],"anonymous":false},{"type":"event","name":"RoleGranted","inputs":[{"name":"role","type":"bytes32","indexed":true,"internalType":"bytes32"},{"name":"account","type":"address","indexed":true,"internalType":"address"},{"name":"sender","type":"address","indexed":true,"internalType":"address"}],"anonymous":false},{"type":"event","name":"RoleRevoked","inputs":[{"name":"role","type":"bytes32","indexed":true,"internalType":"bytes32"},{"name":"account","type":"address","indexed":true,"internalType":"address"},{"name":"sender","type":"address","indexed":true,"internalType":"address"}],"anonymous":false},{"type":"event","name":"YieldHarvested","inputs":[{"name":"protocol","type":"address","indexed":true,"internalType":"address"},{"name":"amount","type":"uint256","indexed":false,"internalType":"uint256"},{"name":"newApy","type":"uint256","indexed":false,"internalType":"uint256"}],"anonymous":false},{"type":"error","name":"AIInvestmentAmountTooHigh","inputs":[{"name":"amount","type":"uint256","internalType":"uint256"},{"name":"maxAllowed","type":"uint256","internalType":"uint256"}]},{"type":"error","name":"AIInvestmentRiskTooHigh","inputs":[{"name":"riskScore","type":"uint256","internalType":"uint256"},{"name":"maxAllowed","type":"uint256","internalType":"uint256"}]},{"type":"error","name":"AccessControlBadConfirmation","inputs":[]},{"type":"error","name":"AccessControlUnauthorizedAccount","inputs":[{"name":"account","type":"address","internalType":"address"},{"name":"neededRole","type":"bytes32","internalType":"bytes32"}]},{"type":"error","name":"AddressBlacklisted","inputs":[{"name":"account","type":"address","internalType":"address"}]},{"type":"error","name":"AllocationMismatch","inputs":[{"name":"total","type":"uint256","internalType":"uint256"},{"name":"expected","type":"uint256","internalType":"uint256"}]},{"type":"error","name":"EmergencyPaused","inputs":[]},{"type":"error","name":"EmergencyReserveInsufficient","inputs":[{"name":"requested","type":"uint256","internalType":"uint256"},{"name":"available","type":"uint256","internalType":"uint256"}]},{"type":"error","name":"InsufficientFunds","inputs":[{"name":"category","type":"uint8","internalType":"enum AITreasury.AllocationCategory"},{"name":"requested","type":"uint256","internalType":"uint256"},{"name":"available","type":"uint256","internalType":"uint256"}]},{"type":"error","name":"InvalidCategory","inputs":[{"name":"category","type":"uint8","internalType":"enum AITreasury.AllocationCategory"}]},{"type":"error","name":"InvalidPercentage","inputs":[{"name":"percentage","type":"uint256","internalType":"uint256"},{"name":"max","type":"uint256","internalType":"uint256"}]},{"type":"error","name":"InvalidRecipient","inputs":[{"name":"recipient","type":"address","internalType":"address"}]},{"type":"error","name":"MultiSigAlreadySigned","inputs":[{"name":"txHash","type":"bytes32","internalType":"bytes32"},{"name":"signer","type":"address","internalType":"address"}]},{"type":"error","name":"MultiSigExpired","inputs":[{"name":"txHash","type":"bytes32","internalType":"bytes32"}]},{"type":"error","name":"MultiSigInsufficientSignatures","inputs":[{"name":"txHash","type":"bytes32","internalType":"bytes32"},{"name":"current","type":"uint256","internalType":"uint256"},{"name":"required","type":"uint256","internalType":"uint256"}]},{"type":"error","name":"MultiSigNotFound","inputs":[{"name":"txHash","type":"bytes32","internalType":"bytes32"}]},{"type":"error","name":"MultiSigTimelockActive","inputs":[{"name":"txHash","type":"bytes32","internalType":"bytes32"},{"name":"unlockTime","type":"uint256","internalType":"uint256"}]},{"type":"error","name":"ReentrancyGuardReentrantCall","inputs":[]},{"type":"error","name":"SafeERC20FailedOperation","inputs":[{"name":"token","type":"address","internalType":"address"}]},{"type":"error","name":"SpendingLimitExceeded","inputs":[{"name":"category","type":"uint8","internalType":"enum AITreasury.AllocationCategory"},{"name":"requested","type":"uint256","internalType":"uint256"},{"name":"limit","type":"uint256","internalType":"uint256"}]},{"type":"error","name":"TransactionAlreadyProcessed","inputs":[{"name":"txHash","type":"bytes32","internalType":"bytes32"}]},{"type":"error","name":"YieldAllocationExceeded","inputs":[{"name":"requested","type":"uint256","internalType":"uint256"},{"name":"max","type":"uint256","internalType":"uint256"}]},{"type":"error","name":"YieldStrategyNotFound","inputs":[{"name":"protocol","type":"address","internalType":"address"}]},{"type":"error","name":"ZeroAmount","inputs":[]}],"bytecode":{"object":"0x60a06040523461070057604051601f61300938819003918201601f19168301916001600160401b03831184841017610704578084926080946040528339810103126107005761004d81610737565b9061005a60208201610737565b610072606061006b60408501610737565b9301610737565b60017f9b779b17422d0df92223018b32b4d1fa46e071723d6817e2486d003becc55f0055926001600160a01b03169182156106ed576001600160a01b0382169384156106da576100d56100db926100eb956080526100cf85610763565b506107d9565b5061086c565b506100e5816108ff565b50610992565b50600260208190527fac33ff75c19e70fe83507db0d683fd3465c996598dc972688b7ace676c89077b805460ff199081169091557fe90b7bceb6e7df5418fb78d8ee546e97c83a08bbccc01a0644d599ccd2a7c2e08054821660011790557f679795a0195a1b76cdebb7c51d74e058aee92919b8c3389af86ef24535e8a28c805482169092179091557f88601476d11616a71c5be67555bd1dff4b1cbf21533d2669b768b61518cfe1c38054821660031790557fee60d0579bcffd98e668647d59fec1ff86a7fb340ce572e844f234ae73a6918f8054821660041790557fb98b78633099fa36ed8b8680c4f8092689e1e04080eb9cbb077ca38a14d7e38480548216600517905560065f8190527f59dd4b18488d12f51eda69757a0ed42a2010c14b564330cc74a06895e60c077b8054909216179055610229610718565b5f815260208101610bb8815260408201905f825260608301925f8452608081019385855260a0820193600185525f8052600160205260405f2092519360078510156106c65761027a6004958561074b565b51600184015551600283015551600382015592519201805491516001600160a81b03199092166001600160a01b03939093169290921790151560a01b60ff60a01b161790556102c7610718565b60018152602081016105dc815260408201905f825260608301925f8452608081019385855260a08201936001855260015f52600160205260405f2092519360078510156106c65761031a6004958561074b565b51600184015551600283015551600382015592519201805491516001600160a81b03199092166001600160a01b03939093169290921790151560a01b60ff60a01b16179055610367610718565b60028152602081016105dc815260408201905f825260608301925f8452608081019385855260a08201936001855260025f52600160205260405f2092519360078510156106c6576103ba6004958561074b565b51600184015551600283015551600382015592519201805491516001600160a81b03199092166001600160a01b03939093169290921790151560a01b60ff60a01b16179055610407610718565b60038152602081016103e8815260408201905f825260608301925f8452608081019385855260a08201936001855260035f52600160205260405f2092519360078510156106c65761045a6004958561074b565b51600184015551600283015551600382015592519201805491516001600160a81b03199092166001600160a01b03939093169290921790151560a01b60ff60a01b161790556104a7610718565b60048152602081016103e8815260408201905f825260608301925f8452608081019385855260a08201936001855260045f52600160205260405f2092519360078510156106c6576104fa6004958561074b565b51600184015551600283015551600382015592519201805491516001600160a81b03199092166001600160a01b03939093169290921790151560a01b60ff60a01b16179055610547610718565b60058152602081016105dc815260408201905f825260608301925f8452608081019385855260a08201936001855260055f52600160205260405f2092519360078510156106c65761059a6004958561074b565b51600184015551600283015551600382015592519201805491516001600160a81b03199092166001600160a01b03939093169290921790151560a01b60ff60a01b161790556105e7610718565b60068152602081016101f4815260408201915f8352606081015f81526080820194855260a08201936001855260065f52600160205260405f2092519360078510156106c6576106386004958561074b565b51600184015551600283015551600382015592519201805491516001600160a81b03199092166001600160a01b03939093169290921790151560a01b60ff60a01b161790556040516125239081610a268239608051818181610719015281816108e7015281816109ef01528181610b870152818161107c0152818161160b0152818161166601526117a70152f35b634e487b7160e01b5f52602160045260245ffd5b84630bc2c5df60e11b5f5260045260245ffd5b82630bc2c5df60e11b5f5260045260245ffd5b5f80fd5b634e487b7160e01b5f52604160045260245ffd5b6040519060c082016001600160401b0381118382101761070457604052565b51906001600160a01b038216820361070057565b9060078110156106c65760ff80198354169116179055565b6001600160a01b0381165f9081525f516020612fc95f395f51905f52602052604090205460ff166107d4576001600160a01b03165f8181525f516020612fc95f395f51905f5260205260408120805460ff191660011790553391905f516020612f495f395f51905f528180a4600190565b505f90565b6001600160a01b0381165f9081525f516020612fa95f395f51905f52602052604090205460ff166107d4576001600160a01b03165f8181525f516020612fa95f395f51905f5260205260408120805460ff191660011790553391907fb0f8576b4ab6d387749a5acd70a6324b30741718c2a117c20e001efd848a4dd4905f516020612f495f395f51905f529080a4600190565b6001600160a01b0381165f9081525f516020612fe95f395f51905f52602052604090205460ff166107d4576001600160a01b03165f8181525f516020612fe95f395f51905f5260205260408120805460ff191660011790553391907f93a9ea60add98726fcd12f31bd91d98faf4378bac52abb4f48e807756ced77a1905f516020612f495f395f51905f529080a4600190565b6001600160a01b0381165f9081525f516020612f895f395f51905f52602052604090205460ff166107d4576001600160a01b03165f8181525f516020612f895f395f51905f5260205260408120805460ff191660011790553391907f4fb7db8f6a31312bf4a65abee9204637a05d13df0f4033351b7aa7a2b7e9e578905f516020612f495f395f51905f529080a4600190565b6001600160a01b0381165f9081525f516020612f695f395f51905f52602052604090205460ff166107d4576001600160a01b03165f8181525f516020612f695f395f51905f5260205260408120805460ff191660011790553391907f470f4f1717679395b6a9e0700797bfeeaa970f1643e72f5684d687c0be10fe27905f516020612f495f395f51905f529080a460019056fe6080806040526004361015610012575f80fd5b5f3560e01c90816301ffc9a714611eb3575080630953ce6414611ca057806311d3903b14611c83578063153b0d1e14611c06578063160e5d9a14611be9578063248a9ca314611bb7578063266d63e014611b0b57806327c830a914611ae95780632f2ff15d14611aac57806336568abe14611a685780633f781de214611a4d57806342bb9e19146116e25780634374e8e21461163a57806345a158fb146115f657806345f19131146115db578063497d3ce8146115a75780634a4e3bd51461155957806351858e271461150757806351d1eb8b1461148b57806353dc770a1461142357806354c44c17146113c95780635a712b08146113ac57806364eb4b041461133157806366975a48146112f7578063693faf4a146112bd57806369c699af146111715780636e353a1d1461102e5780636e7e7f8b14610c4c5780636fc2984914610ab257806391d1485414610a6a57806393a637e3146109675780639b5655dc146108bc578063a217fddf146108a2578063ac2e493614610873578063b6b55f25146106d9578063bc50caaf146106be578063bec8b2fc14610642578063c750308714610625578063cb2e86e514610609578063ce836c9f146105ed578063d547741f146105a9578063d90637f31461045e578063d9bdf71514610442578063dbac26e914610405578063e1f1c4a7146103e9578063ea4b7dcd146103af578063eb1db407146102b7578063f87eb6271461029c578063fd7b2f78146102805763fe9e964014610242575f80fd5b3461027c575f36600319011261027c5760206040517f470f4f1717679395b6a9e0700797bfeeaa970f1643e72f5684d687c0be10fe278152f35b5f80fd5b3461027c575f36600319011261027c5760206040516107d08152f35b3461027c575f36600319011261027c57602060405160038152f35b3461027c57602036600319011261027c576004356102d3612141565b805f52600760205260405f2060058101541561039c5760ff60068201541661038957600281019060018060a01b0333165f528160205260ff60405f2054166103725760049160018060a01b0333165f5260205260405f20600160ff1982541617905501906103418254612133565b8092556040519182527fc9cc25644568cec7b25501e4db4dc3a997b666b202904646500ddd0d7fcc5b7960203393a3005b82638bde866160e01b5f526004523360245260445ffd5b506317cc742960e31b5f5260045260245ffd5b506331b7483760e21b5f5260045260245ffd5b3461027c575f36600319011261027c5760206040517f93a9ea60add98726fcd12f31bd91d98faf4378bac52abb4f48e807756ced77a18152f35b3461027c575f36600319011261027c5760206040516127108152f35b3461027c57602036600319011261027c576001600160a01b03610426611f06565b165f52600d602052602060ff60405f2054166040519015158152f35b3461027c575f36600319011261027c576020604051610bb88152f35b3461027c57602036600319011261027c576004355f52600760205260405f20805460038201549160048101549060058101546006820154600783015491600960018060a01b03600886015416940194604051955f908054906104bf8261200d565b808a5291600181169081156105825750600114610545575b50509186959493916104f161054198610523950388612045565b604051998a998a5260208a01526040890152606088015260ff81161515608088015260ff60a088019160081c16611fd2565b60c085015260e0840152610120610100840152610120830190612067565b0390f35b5f908152602081209092505b8183106105685750508601602001816104f16104d7565b6001816020929493945483858d0101520191019190610551565b60ff19166020808c019190915292151560051b8a0190920192508391506104f190506104d7565b3461027c57604036600319011261027c576105eb6004356105c8611f1c565b906105e66105e1825f525f602052600160405f20015490565b6122dd565b61239d565b005b3461027c575f36600319011261027c5760206040516103e88152f35b3461027c575f36600319011261027c5760206040516113888152f35b3461027c575f36600319011261027c576020600654604051908152f35b3461027c57602036600319011261027c576001600160a01b03610663611f06565b165f52600860205260c060405f2060018060a01b0381541690600181015490600281015460038201549060ff6005600485015494015416936040519586526020860152604085015260608401526080830152151560a0820152f35b3461027c575f36600319011261027c576020604051601e8152f35b3461027c57602036600319011261027c576004356106f561241d565b8015610864576040516323b872dd60e01b5f908152336004523060245260448390527f00000000000000000000000000000000000000000000000000000000000000006001600160a01b0316919060209060648180865af19060015f5114821615610843575b6040525f6060521561083157505f5b600781106107855760015f5160206124ce5f395f51905f5255005b805f52600260205260ff60405f2054169061079f82611fdf565b60ff600482015460a01c166107ba575b50600191500161076a565b6001810154808502908582040361081d576127106002910491016107df828254612106565b90556007831015610809576005600193036107af5761080090600c54612106565b600c55836107af565b634e487b7160e01b5f52602160045260245ffd5b634e487b7160e01b5f52601160045260245ffd5b635274afe760e01b5f5260045260245ffd5b90600181151661085b57823b15153d1516169061075b565b503d5f823e3d90fd5b631f2a200560e01b5f5260045ffd5b3461027c57602036600319011261027c576004355f526004602052602060ff60405f2054166040519015158152f35b3461027c575f36600319011261027c5760206040515f8152f35b3461027c575f36600319011261027c576040516370a0823160e01b81523060048201526020816024817f00000000000000000000000000000000000000000000000000000000000000006001600160a01b03165afa801561095c575f90610929575b602090604051908152f35b506020813d602011610954575b8161094360209383612045565b8101031261027c576020905161091e565b3d9150610936565b6040513d5f823e3d90fd5b3461027c57602036600319011261027c57600435610983612141565b61098b61241d565b805f52600560205260405f20600781019081549160ff8316610a57576001610a149360ff191617905560065f52600160205260405f209060038101916109d8600384549201918254612106565b9055600201549054906001600160a01b03908116907f000000000000000000000000000000000000000000000000000000000000000016612455565b7fdfc89b1e3dde5fdd7b19eeac994440c1fb405b4df1f140b6327b6ee28e38757c60408051600181525f6020820152a260015f5160206124ce5f395f51905f5255005b836317cc742960e31b5f5260045260245ffd5b3461027c57604036600319011261027c57610a83611f1c565b6004355f525f60205260405f209060018060a01b03165f52602052602060ff60405f2054166040519015158152f35b3461027c57602036600319011261027c57600435610ace612141565b610ad661241d565b805f52600760205260405f206005810154908115610c39576006810180549260ff8416610c26576004830154600384015490818110610c0d5750506202a3008101908181118061081d57824210610bf65761081d57620bdd800180911161081d574211610be35760ff610b59916001610bac958319161780915560081c16611fdf565b906007810191610b70600384549201918254612106565b9055600801549054906001600160a01b03908116907f000000000000000000000000000000000000000000000000000000000000000016612455565b7f145ca055b637594b631e8b8048b50d473fbc595761705165e39ef40a994dd2735f80a260015f5160206124ce5f395f51905f5255005b836340fc39e760e11b5f5260045260245ffd5b82876324e0d35b60e21b5f5260045260245260445ffd5b86637ff3604f60e01b5f5260045260245260445260645ffd5b846317cc742960e31b5f5260045260245ffd5b826331b7483760e21b5f5260045260245ffd5b3461027c5760a036600319011261027c5760043567ffffffffffffffff811161027c57610c7d903690600401611f32565b610c85611f1c565b610c8d6121ff565b60ff600b541661101f576001600160a01b031691821561100c576044351561086457601e608435108015611000575b610fe65760065f5260016020527f8f331abe73332f95a25873e8b430885974c0409691f89d643119a11623a7924c546103e8808202918015908304909114171561081d5761271090048060443511610fce575060065491610d1c83612133565b60065560405191610140830183811067ffffffffffffffff821117610fba5760405283835267ffffffffffffffff8211610fba5760405194610d68601f8401601f191660200187612045565b828652368383011161027c57828260208801375f602084880101526020840195865260408401526044356060840152606435608084015260843560a08401524260c08401525f60e08401525f6101008401525f610120840152835f52600560205260405f209483518655519182519567ffffffffffffffff8711610fba57868694610e05602099610dfc600186015461200d565b6001860161209b565b8890601f8311600114610f225796610e5c83600894610120947fe52ed1fa23a0a90089870c8b25b7679b25ceb250dc9522a3922b824ba14565249a9b5f92610f17575b50508160011b915f199060031b1c19161790565b60018501555b60408101516002850180546001600160a01b039092166001600160a01b0319909216919091179055606081015160038501556080810151600485015560a0810151600585015560c0810151600685015560e081015160078501805461010084015192151560ff1661ffff199091161791151560081b61ff00169190911790550151910155610efd604051928392606084526060840191612113565b6044358783015260843560408301520390a2604051908152f35b015190508d80610e48565b60018498939298015f52875f20905f5b601f1984168110610fa0575082600894927fe52ed1fa23a0a90089870c8b25b7679b25ceb250dc9522a3922b824ba1456524999a60019361012096601f19811610610f88575b505050811b016001850155610e62565b01515f1960f88460031b161c191690558c8080610f78565b818a01518355988b01988a98506001909201918b01610f32565b634e487b7160e01b5f52604160045260245ffd5b634b81e88d60e11b5f5260443560045260245260445ffd5b63b13d00b360e01b5f52608435600452604660245260445ffd5b50604660843511610cbc565b82630bc2c5df60e11b5f5260045260245ffd5b634cb3183d60e01b5f5260045ffd5b3461027c57602036600319011261027c57611047611f06565b61104f61226e565b61105761241d565b6001600160a01b038116801561115f576040516370a0823160e01b81523060048201527f00000000000000000000000000000000000000000000000000000000000000006001600160a01b031692602082602481875afa91821561095c575f9261110b575b50907f3ab9db27a4cdd8c603a752b62d5fbd93b4b3509fe2596708e9688e42bbac3576926110ed8260409487612455565b82519182526020820152a260015f5160206124ce5f395f51905f5255005b91506020823d602011611157575b8161112660209383612045565b8101031261027c579051907f3ab9db27a4cdd8c603a752b62d5fbd93b4b3509fe2596708e9688e42bbac35766110bc565b3d9150611119565b630bc2c5df60e11b5f5260045260245ffd5b3461027c57602036600319011261027c576004355f52600560205260405f208054600182019160405192835f8254926111a98461200d565b808452936001811690811561129b5750600114611257575b506111ce92500384612045565b60018060a01b036002820154169060ff60038201549160048101546005820154600683015491600860078501549401549561121d6040519a8b9a8b5261014060208c01526101408b0190612067565b9760408a01526060890152608088015260a087015260c0860152818116151560e086015260081c1615156101008401526101208301520390f35b90505f9291925260205f20905f915b81831061127f5750509060206111ce92820101866111c1565b6020919350806001915483858a01015201910190918592611266565b9050602092506111ce94915060ff191682840152151560051b820101866111c1565b3461027c575f36600319011261027c5760206040517f4fb7db8f6a31312bf4a65abee9204637a05d13df0f4033351b7aa7a2b7e9e5788152f35b3461027c575f36600319011261027c5760206040517fb0f8576b4ab6d387749a5acd70a6324b30741718c2a117c20e001efd848a4dd48152f35b3461027c57602036600319011261027c57600435600781101561027c5761135960c091611fdf565b60ff6001820154916002810154906003810154600461137882856120f9565b9201549260405195865260208601526040850152606084015260018060a01b038116608084015260a01c16151560a0820152f35b3461027c575f36600319011261027c5760206040516202a3008152f35b3461027c57602036600319011261027c5760043560095481101561027c5760095f527f6e1540171b6c0c960b71a7020d9f60077f6af931a8bbf590da0223dacf75c7af01546040516001600160a01b039091168152602090f35b3461027c57602036600319011261027c57600435600781101561027c5761144b60c091611ff6565b80549060018101549060028101546003820154906005600484015493015493604051958652602086015260408501526060840152608083015260a0820152f35b3461027c57602036600319011261027c57600435600781101561027c576114b360c091611fdf565b60ff8082541691600181015490600281015460046003830154920154926114dd6040518097611fd2565b60208601526040850152606084015260018060a01b038116608084015260a01c16151560a0820152f35b3461027c575f36600319011261027c5761151f61226e565b600160ff19600b541617600b557fb5838f871ddee4623a406029b1a0b6013e0ec30f2dc114307f21459a800a8296602060405160018152a1005b3461027c575f36600319011261027c576115716121b0565b60ff19600b5416600b557fb5838f871ddee4623a406029b1a0b6013e0ec30f2dc114307f21459a800a829660206040515f8152a1005b3461027c57602036600319011261027c576004355f526002602052602060ff60405f2054166115d96040518092611fd2565bf35b3461027c575f36600319011261027c57602060405160468152f35b3461027c575f36600319011261027c576040517f00000000000000000000000000000000000000000000000000000000000000006001600160a01b03168152602090f35b3461027c57602036600319011261027c576040516370a0823160e01b81523060048201526020816024817f00000000000000000000000000000000000000000000000000000000000000006001600160a01b03165afa801561095c575f906116af575b60209060646040519104600435118152f35b506020813d6020116116da575b816116c960209383612045565b8101031261027c576020905161169d565b3d91506116bc565b3461027c576116f036611f60565b909193926116fc612141565b60ff600b541661101f576001600160a01b0385165f818152600d602052604090205490959060ff16611a3a5761173061241d565b8115610864578515611a275761174585611fdf565b60ff600482015460a01c1615611a0f5760036002820154910161176a815480936120f9565b8085116119fb575061177b87611ff6565b8054806119b8575b506001810154908161195f575b50506040516370a0823160e01b81523060048201527f00000000000000000000000000000000000000000000000000000000000000006001600160a01b03169290602081602481875afa801561095c575f9061192c575b606491500485116118d6579161185e9391611803868095612106565b9055600361181089611ff6565b62015180420460048201818154036118c8575b505060028101611834868254612106565b905562278d00420460058201818154036118bb575b505001611857848254612106565b9055612455565b6007841015610809576118a57fac6d56f67b75ba8ceec6713ba7f705decae940e3a5c836b0d8407f9faaef9e4c936040519384938452604060208501526040840191612113565b0390a360015f5160206124ce5f395f51905f5255005b5f84840155558b80611849565b5f6002840155558b80611823565b604051602081019085876118ea848d61208b565b60218301526001600160601b03199060601b16604182015242605582015260558152611917607582612045565b5190206331b7483760e21b5f5260045260245ffd5b506020813d602011611957575b8161194660209383612045565b8101031261027c57606490516117e7565b3d9150611939565b600581015462278d004204036119b05760030154905b806119808784612106565b1115611790576119a56119958a9388936120f9565b63df640a8360e01b5f5292611fc4565b60245260445260645ffd5b505f90611975565b6004820154620151804204036119f4576002820154905b806119da8884612106565b116119e55750611783565b6119a56119958b9389936120f9565b5f906119cf565b6334e2ad2160e01b5f52846119a589611fc4565b63e4e866a960e01b5f52611a2286611fc4565b60245ffd5b85630bc2c5df60e11b5f5260045260245ffd5b8563daf49ab960e01b5f5260045260245ffd5b3461027c575f36600319011261027c57602060405160078152f35b3461027c57604036600319011261027c57611a81611f1c565b336001600160a01b03821603611a9d576105eb9060043561239d565b63334bd91960e11b5f5260045ffd5b3461027c57604036600319011261027c576105eb600435611acb611f1c565b90611ae46105e1825f525f602052600160405f20015490565b612315565b3461027c575f36600319011261027c57602060ff600b54166040519015158152f35b3461027c57606036600319011261027c57600435611b27611fb5565b604435611b326121ff565b825f52600560205260405f2091600783019160ff83541615611ba3578060087fdfc89b1e3dde5fdd7b19eeac994440c1fb405b4df1f140b6327b6ee28e38757c95611b92856040979061ff00825491151560081b169061ff001916179055565b0155825191151582526020820152a2005b63e4e866a960e01b5f52600660045260245ffd5b3461027c57602036600319011261027c576020611be16004355f525f602052600160405f20015490565b604051908152f35b3461027c575f36600319011261027c576020600a54604051908152f35b3461027c57604036600319011261027c57611c1f611f06565b7f6a12b3df6cba4203bd7fd06b816789f87de8c594299aed5717ae070fac781bac6020611c4a611fb5565b92611c536121b0565b6001600160a01b03165f818152600d835260409020805460ff191660ff86151516179055926040519015158152a2005b3461027c575f36600319011261027c576020600c54604051908152f35b3461027c57611cae36611f60565b93909192611cba612141565b6040516020810190611ccc828561208b565b8260218201526001600160601b03198660601b16604182015286856055830137611d0860206055838a8101428382015203018084520182612045565b51902093845f526007602052600560405f200154610c2657845f52600760205260405f20858155600380820155426005820155600681019182549260078610156108095760099361ff008760081b169061ffff1916179055836007830155600882019060018060a01b03166001600160601b0360a01b8254161790550167ffffffffffffffff8611610fba57858594611dad602098611da7855461200d565b8561209b565b5f90601f8311600114611e285782604095937fa59679a04c1b492a8f563bb537796204f13b64c16154aa7eedb35649a43ee33a979593611e01935f92611e1d5750508160011b915f199060031b1c19161790565b90555b611e1083518093611fd2565b86820152a2604051908152f35b013590508b80610e48565b601f19831691845f52895f20925f5b818110611e995750926001928592604098967fa59679a04c1b492a8f563bb537796204f13b64c16154aa7eedb35649a43ee33a9a989610611e80575b505050811b019055611e04565b01355f19600384901b60f8161c191690558a8080611e73565b8284013585558a9950600190940193918b01918b01611e37565b3461027c57602036600319011261027c576004359063ffffffff60e01b821680920361027c57602091637965db0b60e01b8114908115611ef5575b5015158152f35b6301ffc9a760e01b14905083611eee565b600435906001600160a01b038216820361027c57565b602435906001600160a01b038216820361027c57565b9181601f8401121561027c5782359167ffffffffffffffff831161027c576020838186019501011161027c57565b90608060031983011261027c57600435600781101561027c5791602435916044356001600160a01b038116810361027c57916064359067ffffffffffffffff821161027c57611fb191600401611f32565b9091565b60243590811515820361027c57565b600781101561080957600452565b9060078210156108095752565b6007811015610809575f52600160205260405f2090565b6007811015610809575f52600360205260405f2090565b90600182811c9216801561203b575b602083101461202757565b634e487b7160e01b5f52602260045260245ffd5b91607f169161201c565b90601f8019910116810190811067ffffffffffffffff821117610fba57604052565b805180835260209291819084018484015e5f828201840152601f01601f1916010190565b60078110156108095760f81b9052565b919091601f83116120ac575b505050565b8183116120b857505050565b5f5260205f206020601f830160051c92106120f1575b81601f9101920160051c03905f5b828110156120a7575f828201556001016120dc565b5f91506120ce565b9190820391821161081d57565b9190820180921161081d57565b908060209392818452848401375f828201840152601f01601f1916010190565b5f19811461081d5760010190565b335f9081527f1924aeff785f0a9d757a3dcb146138061178e1336ef08af281ca07b5513c8406602052604090205460ff161561217957565b63e2517d3f60e01b5f52336004527f4fb7db8f6a31312bf4a65abee9204637a05d13df0f4033351b7aa7a2b7e9e57860245260445ffd5b335f9081527fad3228b676f7d3cd4284a5443f17f1962b36e491b30a40b2405849e597ba5fb5602052604090205460ff16156121e857565b63e2517d3f60e01b5f52336004525f60245260445ffd5b335f9081527feae0d737dd2dbe3a654133e09c5ef4a4bc0a424ac8d5f2c497152e3ba2bc345b602052604090205460ff161561223757565b63e2517d3f60e01b5f52336004527fb0f8576b4ab6d387749a5acd70a6324b30741718c2a117c20e001efd848a4dd460245260445ffd5b335f9081527f771d5f5340810d587e5112a7da2111ed029f59892c84a3f87a5cc8901d56a284602052604090205460ff16156122a657565b63e2517d3f60e01b5f52336004527f93a9ea60add98726fcd12f31bd91d98faf4378bac52abb4f48e807756ced77a160245260445ffd5b5f8181526020818152604080832033845290915290205460ff16156122ff5750565b63e2517d3f60e01b5f523360045260245260445ffd5b5f818152602081815260408083206001600160a01b038616845290915290205460ff16612397575f818152602081815260408083206001600160a01b0395909516808452949091528120805460ff19166001179055339291907f2f8788117e7eff1d82e926ec794901d17c78024a50270940304540a733656f0d9080a4600190565b50505f90565b5f818152602081815260408083206001600160a01b038616845290915290205460ff1615612397575f818152602081815260408083206001600160a01b0395909516808452949091528120805460ff19169055339291907ff6391f5c32d9c69d2a47ea670b442974b53935d1edc7fd64eb21e047a839171b9080a4600190565b60025f5160206124ce5f395f51905f5254146124465760025f5160206124ce5f395f51905f5255565b633ee5aeb560e01b5f5260045ffd5b916040519163a9059cbb60e01b5f5260018060a01b031660045260245260205f60448180865af19060015f51148216156124b5575b604052156124955750565b635274afe760e01b5f9081526001600160a01b0391909116600452602490fd5b90600181151661085b57823b15153d1516169061248a56fe9b779b17422d0df92223018b32b4d1fa46e071723d6817e2486d003becc55f00a26469706673582212209fb25277dbdc28d2dce92cd13605e8edb42cea3d0d1bbe284339142ef743b08f64736f6c634300082100332f8788117e7eff1d82e926ec794901d17c78024a50270940304540a733656f0dac7f456f33c5ee351ae3de46295d1da134dc7a37f62366914b5b4d70f151cdb01924aeff785f0a9d757a3dcb146138061178e1336ef08af281ca07b5513c8406eae0d737dd2dbe3a654133e09c5ef4a4bc0a424ac8d5f2c497152e3ba2bc345bad3228b676f7d3cd4284a5443f17f1962b36e491b30a40b2405849e597ba5fb5771d5f5340810d587e5112a7da2111ed029f59892c84a3f87a5cc8901d56a284","linkReferences":{}},"methodIdentifiers":{"AI_CONTROLLER_ROLE()":"66975a48","ALLOCATION_COUNT()":"3f781de2","ALLOCATION_MANAGER_ROLE()":"693faf4a","BASIS_POINTS()":"e1f1c4a7","DEFAULT_ADMIN_ROLE()":"a217fddf","EMERGENCY_GUARDIAN_ROLE()":"ea4b7dcd","EMERGENCY_RESERVE_PERCENT()":"fd7b2f78","MAX_AI_INVESTMENT_PERCENT()":"ce836c9f","MAX_ALLOCATION_PERCENT()":"cb2e86e5","MAX_RISK_SCORE()":"45f19131","MAX_YIELD_ALLOCATION()":"d9bdf715","MIN_RISK_SCORE()":"bc50caaf","MULTI_SIG_THRESHOLD()":"f87eb627","MULTI_SIG_TIMELOCK()":"5a712b08","YIELD_MANAGER_ROLE()":"fe9e9640","activeYieldProtocols(uint256)":"54c44c17","aiInvestmentCount()":"c7503087","aiInvestments(uint256)":"69c699af","allocations(uint8)":"51d1eb8b","blacklisted(address)":"dbac26e9","categoryByIndex(uint256)":"497d3ce8","createMultiSigRequest(uint8,uint256,address,bytes)":"0953ce64","deposit(uint256)":"b6b55f25","emergencyFundReserved()":"11d3903b","emergencyPause()":"51858e27","emergencyPaused()":"27c830a9","emergencyUnpause()":"4a4e3bd5","emergencyWithdrawal(address)":"6e353a1d","executeAIInvestment(uint256)":"93a637e3","executeMultiSigRequest(bytes32)":"6fc29849","freedomToken()":"45a158fb","getAllocationDetails(uint8)":"64eb4b04","getRoleAdmin(bytes32)":"248a9ca3","getTreasuryBalance()":"9b5655dc","grantRole(bytes32,address)":"2f2ff15d","hasRole(bytes32,address)":"91d14854","multiSigRequests(bytes32)":"d90637f3","processedTransactions(bytes32)":"ac2e4936","proposeAIInvestment(string,address,uint256,uint256,uint256)":"6e7e7f8b","renounceRole(bytes32,address)":"36568abe","reportAIInvestmentResults(uint256,bool,uint256)":"266d63e0","requiresMultiSig(uint256)":"4374e8e2","revokeRole(bytes32,address)":"d547741f","setBlacklist(address,bool)":"153b0d1e","signMultiSigRequest(bytes32)":"eb1db407","spend(uint8,uint256,address,string)":"42bb9e19","spendingLimits(uint8)":"53dc770a","supportsInterface(bytes4)":"01ffc9a7","totalYieldAllocated()":"160e5d9a","yieldStrategies(address)":"bec8b2fc"},"id":0}