{"abi":[{"type":"constructor","inputs":[{"name":"_governanceToken","type":"address","internalType":"address"},{"name":"_admin","type":"address","internalType":"address"},{"name":"_guardian","type":"address","internalType":"address"},{"name":"_aiController","type":"address","internalType":"address"}],"stateMutability":"nonpayable"},{"type":"receive","stateMutability":"payable"},{"type":"function","name":"AI_CONTROLLER_ROLE","inputs":[],"outputs":[{"name":"","type":"bytes32","internalType":"bytes32"}],"stateMutability":"view"},{"type":"function","name":"DEFAULT_ADMIN_ROLE","inputs":[],"outputs":[{"name":"","type":"bytes32","internalType":"bytes32"}],"stateMutability":"view"},{"type":"function","name":"EXECUTOR_ROLE","inputs":[],"outputs":[{"name":"","type":"bytes32","internalType":"bytes32"}],"stateMutability":"view"},{"type":"function","name":"GRACE_PERIOD","inputs":[],"outputs":[{"name":"","type":"uint256","internalType":"uint256"}],"stateMutability":"view"},{"type":"function","name":"GUARDIAN_ROLE","inputs":[],"outputs":[{"name":"","type":"bytes32","internalType":"bytes32"}],"stateMutability":"view"},{"type":"function","name":"PROPOSAL_MAX_OPERATIONS","inputs":[],"outputs":[{"name":"","type":"uint256","internalType":"uint256"}],"stateMutability":"view"},{"type":"function","name":"PROPOSAL_THRESHOLD","inputs":[],"outputs":[{"name":"","type":"uint256","internalType":"uint256"}],"stateMutability":"view"},{"type":"function","name":"PROPOSAL_THRESHOLD_PERCENT","inputs":[],"outputs":[{"name":"","type":"uint256","internalType":"uint256"}],"stateMutability":"view"},{"type":"function","name":"PROPOSER_ROLE","inputs":[],"outputs":[{"name":"","type":"bytes32","internalType":"bytes32"}],"stateMutability":"view"},{"type":"function","name":"QUORUM_VOTES","inputs":[],"outputs":[{"name":"","type":"uint256","internalType":"uint256"}],"stateMutability":"view"},{"type":"function","name":"TIMELOCK_DELAY","inputs":[],"outputs":[{"name":"","type":"uint256","internalType":"uint256"}],"stateMutability":"view"},{"type":"function","name":"VOTING_DELAY","inputs":[],"outputs":[{"name":"","type":"uint256","internalType":"uint256"}],"stateMutability":"view"},{"type":"function","name":"VOTING_PERIOD","inputs":[],"outputs":[{"name":"","type":"uint256","internalType":"uint256"}],"stateMutability":"view"},{"type":"function","name":"aiRecommendations","inputs":[{"name":"","type":"uint256","internalType":"uint256"}],"outputs":[{"name":"proposalId","type":"uint256","internalType":"uint256"},{"name":"recommendation","type":"string","internalType":"string"},{"name":"confidence","type":"uint8","internalType":"uint8"},{"name":"timestamp","type":"uint256","internalType":"uint256"},{"name":"implemented","type":"bool","internalType":"bool"}],"stateMutability":"view"},{"type":"function","name":"cancel","inputs":[{"name":"proposalId","type":"uint256","internalType":"uint256"}],"outputs":[],"stateMutability":"nonpayable"},{"type":"function","name":"castVote","inputs":[{"name":"proposalId","type":"uint256","internalType":"uint256"},{"name":"support","type":"uint8","internalType":"uint8"}],"outputs":[],"stateMutability":"nonpayable"},{"type":"function","name":"castVoteWithReason","inputs":[{"name":"proposalId","type":"uint256","internalType":"uint256"},{"name":"support","type":"uint8","internalType":"uint8"},{"name":"reason","type":"string","internalType":"string"}],"outputs":[],"stateMutability":"nonpayable"},{"type":"function","name":"execute","inputs":[{"name":"proposalId","type":"uint256","internalType":"uint256"}],"outputs":[],"stateMutability":"payable"},{"type":"function","name":"getAIRecommendation","inputs":[{"name":"proposalId","type":"uint256","internalType":"uint256"}],"outputs":[{"name":"recommendation","type":"string","internalType":"string"},{"name":"confidence","type":"uint8","internalType":"uint8"},{"name":"timestamp","type":"uint256","internalType":"uint256"},{"name":"implemented","type":"bool","internalType":"bool"}],"stateMutability":"view"},{"type":"function","name":"getProposal","inputs":[{"name":"proposalId","type":"uint256","internalType":"uint256"}],"outputs":[{"name":"id","type":"uint256","internalType":"uint256"},{"name":"proposer","type":"address","internalType":"address"},{"name":"targets","type":"address[]","internalType":"address[]"},{"name":"values","type":"uint256[]","internalType":"uint256[]"},{"name":"calldatas","type":"bytes[]","internalType":"bytes[]"},{"name":"description","type":"string","internalType":"string"},{"name":"forVotes","type":"uint256","internalType":"uint256"},{"name":"againstVotes","type":"uint256","internalType":"uint256"},{"name":"abstainVotes","type":"uint256","internalType":"uint256"},{"name":"startBlock","type":"uint256","internalType":"uint256"},{"name":"endBlock","type":"uint256","internalType":"uint256"},{"name":"eta","type":"uint256","internalType":"uint256"},{"name":"canceled","type":"bool","internalType":"bool"},{"name":"executed","type":"bool","internalType":"bool"}],"stateMutability":"view"},{"type":"function","name":"getProposalActionsCount","inputs":[{"name":"proposalId","type":"uint256","internalType":"uint256"}],"outputs":[{"name":"","type":"uint256","internalType":"uint256"}],"stateMutability":"view"},{"type":"function","name":"getProposers","inputs":[],"outputs":[{"name":"","type":"address[]","internalType":"address[]"}],"stateMutability":"view"},{"type":"function","name":"getRoleAdmin","inputs":[{"name":"role","type":"bytes32","internalType":"bytes32"}],"outputs":[{"name":"","type":"bytes32","internalType":"bytes32"}],"stateMutability":"view"},{"type":"function","name":"governanceToken","inputs":[],"outputs":[{"name":"","type":"address","internalType":"contract IFreedomToken"}],"stateMutability":"view"},{"type":"function","name":"grantRole","inputs":[{"name":"role","type":"bytes32","internalType":"bytes32"},{"name":"account","type":"address","internalType":"address"}],"outputs":[],"stateMutability":"nonpayable"},{"type":"function","name":"guardianCancel","inputs":[{"name":"proposalId","type":"uint256","internalType":"uint256"},{"name":"reason","type":"string","internalType":"string"}],"outputs":[],"stateMutability":"nonpayable"},{"type":"function","name":"hasRole","inputs":[{"name":"role","type":"bytes32","internalType":"bytes32"},{"name":"account","type":"address","internalType":"address"}],"outputs":[{"name":"","type":"bool","internalType":"bool"}],"stateMutability":"view"},{"type":"function","name":"hasVoted","inputs":[{"name":"proposalId","type":"uint256","internalType":"uint256"},{"name":"account","type":"address","internalType":"address"}],"outputs":[{"name":"","type":"bool","internalType":"bool"}],"stateMutability":"view"},{"type":"function","name":"proposalCount","inputs":[],"outputs":[{"name":"","type":"uint256","internalType":"uint256"}],"stateMutability":"view"},{"type":"function","name":"proposals","inputs":[{"name":"","type":"uint256","internalType":"uint256"}],"outputs":[{"name":"id","type":"uint256","internalType":"uint256"},{"name":"proposer","type":"address","internalType":"address"},{"name":"description","type":"string","internalType":"string"},{"name":"descriptionHash","type":"bytes32","internalType":"bytes32"},{"name":"forVotes","type":"uint256","internalType":"uint256"},{"name":"againstVotes","type":"uint256","internalType":"uint256"},{"name":"abstainVotes","type":"uint256","internalType":"uint256"},{"name":"startBlock","type":"uint256","internalType":"uint256"},{"name":"endBlock","type":"uint256","internalType":"uint256"},{"name":"eta","type":"uint256","internalType":"uint256"},{"name":"canceled","type":"bool","internalType":"bool"},{"name":"executed","type":"bool","internalType":"bool"}],"stateMutability":"view"},{"type":"function","name":"propose","inputs":[{"name":"targets","type":"address[]","internalType":"address[]"},{"name":"values","type":"uint256[]","internalType":"uint256[]"},{"name":"calldatas","type":"bytes[]","internalType":"bytes[]"},{"name":"description","type":"string","internalType":"string"}],"outputs":[{"name":"","type":"uint256","internalType":"uint256"}],"stateMutability":"nonpayable"},{"type":"function","name":"proposeWithAIRecommendation","inputs":[{"name":"targets","type":"address[]","internalType":"address[]"},{"name":"values","type":"uint256[]","internalType":"uint256[]"},{"name":"calldatas","type":"bytes[]","internalType":"bytes[]"},{"name":"description","type":"string","internalType":"string"},{"name":"aiRecommendation","type":"string","internalType":"string"},{"name":"confidence","type":"uint8","internalType":"uint8"}],"outputs":[{"name":"","type":"uint256","internalType":"uint256"}],"stateMutability":"nonpayable"},{"type":"function","name":"queue","inputs":[{"name":"proposalId","type":"uint256","internalType":"uint256"}],"outputs":[],"stateMutability":"nonpayable"},{"type":"function","name":"queuedTransactions","inputs":[{"name":"","type":"bytes32","internalType":"bytes32"}],"outputs":[{"name":"","type":"bool","internalType":"bool"}],"stateMutability":"view"},{"type":"function","name":"quorumReached","inputs":[{"name":"proposalId","type":"uint256","internalType":"uint256"}],"outputs":[{"name":"","type":"bool","internalType":"bool"}],"stateMutability":"view"},{"type":"function","name":"renounceRole","inputs":[{"name":"role","type":"bytes32","internalType":"bytes32"},{"name":"callerConfirmation","type":"address","internalType":"address"}],"outputs":[],"stateMutability":"nonpayable"},{"type":"function","name":"revokeRole","inputs":[{"name":"role","type":"bytes32","internalType":"bytes32"},{"name":"account","type":"address","internalType":"address"}],"outputs":[],"stateMutability":"nonpayable"},{"type":"function","name":"setProposalThreshold","inputs":[{"name":"newThreshold","type":"uint256","internalType":"uint256"}],"outputs":[],"stateMutability":"nonpayable"},{"type":"function","name":"state","inputs":[{"name":"proposalId","type":"uint256","internalType":"uint256"}],"outputs":[{"name":"","type":"uint8","internalType":"enum GasDAO.ProposalState"}],"stateMutability":"view"},{"type":"function","name":"supportsInterface","inputs":[{"name":"interfaceId","type":"bytes4","internalType":"bytes4"}],"outputs":[{"name":"","type":"bool","internalType":"bool"}],"stateMutability":"view"},{"type":"event","name":"AIRecommendationAdded","inputs":[{"name":"proposalId","type":"uint256","indexed":true,"internalType":"uint256"},{"name":"recommendation","type":"string","indexed":false,"internalType":"string"},{"name":"confidence","type":"uint8","indexed":false,"internalType":"uint8"}],"anonymous":false},{"type":"event","name":"GuardianAction","inputs":[{"name":"action","type":"string","indexed":false,"internalType":"string"},{"name":"proposalId","type":"uint256","indexed":false,"internalType":"uint256"},{"name":"reason","type":"string","indexed":false,"internalType":"string"}],"anonymous":false},{"type":"event","name":"ProposalCanceled","inputs":[{"name":"id","type":"uint256","indexed":true,"internalType":"uint256"}],"anonymous":false},{"type":"event","name":"ProposalCreated","inputs":[{"name":"id","type":"uint256","indexed":true,"internalType":"uint256"},{"name":"proposer","type":"address","indexed":true,"internalType":"address"},{"name":"targets","type":"address[]","indexed":false,"internalType":"address[]"},{"name":"values","type":"uint256[]","indexed":false,"internalType":"uint256[]"},{"name":"signatures","type":"string[]","indexed":false,"internalType":"string[]"},{"name":"calldatas","type":"bytes[]","indexed":false,"internalType":"bytes[]"},{"name":"startBlock","type":"uint256","indexed":false,"internalType":"uint256"},{"name":"endBlock","type":"uint256","indexed":false,"internalType":"uint256"},{"name":"description","type":"string","indexed":false,"internalType":"string"}],"anonymous":false},{"type":"event","name":"ProposalExecuted","inputs":[{"name":"id","type":"uint256","indexed":true,"internalType":"uint256"}],"anonymous":false},{"type":"event","name":"ProposalQueued","inputs":[{"name":"id","type":"uint256","indexed":true,"internalType":"uint256"},{"name":"eta","type":"uint256","indexed":false,"internalType":"uint256"}],"anonymous":false},{"type":"event","name":"RoleAdminChanged","inputs":[{"name":"role","type":"bytes32","indexed":true,"internalType":"bytes32"},{"name":"previousAdminRole","type":"bytes32","indexed":true,"internalType":"bytes32"},{"name":"newAdminRole","type":"bytes32","indexed":true,"internalType":"bytes32"}],"anonymous":false},{"type":"event","name":"RoleGranted","inputs":[{"name":"role","type":"bytes32","indexed":true,"internalType":"bytes32"},{"name":"account","type":"address","indexed":true,"internalType":"address"},{"name":"sender","type":"address","indexed":true,"internalType":"address"}],"anonymous":false},{"type":"event","name":"RoleRevoked","inputs":[{"name":"role","type":"bytes32","indexed":true,"internalType":"bytes32"},{"name":"account","type":"address","indexed":true,"internalType":"address"},{"name":"sender","type":"address","indexed":true,"internalType":"address"}],"anonymous":false},{"type":"event","name":"TimelockTransactionExecuted","inputs":[{"name":"txHash","type":"bytes32","indexed":true,"internalType":"bytes32"},{"name":"target","type":"address","indexed":true,"internalType":"address"},{"name":"value","type":"uint256","indexed":false,"internalType":"uint256"},{"name":"signature","type":"string","indexed":false,"internalType":"string"},{"name":"data","type":"bytes","indexed":false,"internalType":"bytes"}],"anonymous":false},{"type":"event","name":"TimelockTransactionQueued","inputs":[{"name":"txHash","type":"bytes32","indexed":true,"internalType":"bytes32"},{"name":"target","type":"address","indexed":true,"internalType":"address"},{"name":"value","type":"uint256","indexed":false,"internalType":"uint256"},{"name":"signature","type":"string","indexed":false,"internalType":"string"},{"name":"data","type":"bytes","indexed":false,"internalType":"bytes"},{"name":"eta","type":"uint256","indexed":false,"internalType":"uint256"}],"anonymous":false},{"type":"event","name":"VoteCast","inputs":[{"name":"voter","type":"address","indexed":true,"internalType":"address"},{"name":"proposalId","type":"uint256","indexed":true,"internalType":"uint256"},{"name":"support","type":"uint8","indexed":false,"internalType":"uint8"},{"name":"votes","type":"uint256","indexed":false,"internalType":"uint256"},{"name":"reason","type":"string","indexed":false,"internalType":"string"}],"anonymous":false},{"type":"error","name":"AccessControlBadConfirmation","inputs":[]},{"type":"error","name":"AccessControlUnauthorizedAccount","inputs":[{"name":"account","type":"address","internalType":"address"},{"name":"neededRole","type":"bytes32","internalType":"bytes32"}]},{"type":"error","name":"AlreadyVoted","inputs":[{"name":"proposalId","type":"uint256","internalType":"uint256"},{"name":"voter","type":"address","internalType":"address"}]},{"type":"error","name":"ExecutionFailed","inputs":[{"name":"proposalId","type":"uint256","internalType":"uint256"},{"name":"operationIndex","type":"uint256","internalType":"uint256"}]},{"type":"error","name":"InvalidProposalLength","inputs":[{"name":"targets","type":"uint256","internalType":"uint256"},{"name":"values","type":"uint256","internalType":"uint256"},{"name":"calldatas","type":"uint256","internalType":"uint256"}]},{"type":"error","name":"InvalidProposalState","inputs":[{"name":"proposalId","type":"uint256","internalType":"uint256"},{"name":"current","type":"uint8","internalType":"enum GasDAO.ProposalState"},{"name":"required","type":"uint8","internalType":"enum GasDAO.ProposalState"}]},{"type":"error","name":"InvalidValueArray","inputs":[{"name":"length","type":"uint256","internalType":"uint256"}]},{"type":"error","name":"InvalidVoteType","inputs":[{"name":"voteType","type":"uint8","internalType":"uint8"}]},{"type":"error","name":"ProposalDefeated","inputs":[{"name":"forVotes","type":"uint256","internalType":"uint256"},{"name":"againstVotes","type":"uint256","internalType":"uint256"}]},{"type":"error","name":"ProposalNotFound","inputs":[{"name":"proposalId","type":"uint256","internalType":"uint256"}]},{"type":"error","name":"ProposalThresholdNotMet","inputs":[{"name":"proposer","type":"address","internalType":"address"},{"name":"votes","type":"uint256","internalType":"uint256"},{"name":"threshold","type":"uint256","internalType":"uint256"}]},{"type":"error","name":"ProposalTooManyActions","inputs":[{"name":"actions","type":"uint256","internalType":"uint256"},{"name":"max","type":"uint256","internalType":"uint256"}]},{"type":"error","name":"QuorumNotReached","inputs":[{"name":"forVotes","type":"uint256","internalType":"uint256"},{"name":"againstVotes","type":"uint256","internalType":"uint256"},{"name":"quorum","type":"uint256","internalType":"uint256"}]},{"type":"error","name":"ReentrancyGuardReentrantCall","inputs":[]},{"type":"error","name":"TimelockExpired","inputs":[{"name":"proposalId","type":"uint256","internalType":"uint256"},{"name":"eta","type":"uint256","internalType":"uint256"},{"name":"gracePeriodEnd","type":"uint256","internalType":"uint256"}]},{"type":"error","name":"TimelockNotExpired","inputs":[{"name":"proposalId","type":"uint256","internalType":"uint256"},{"name":"eta","type":"uint256","internalType":"uint256"},{"name":"currentTime","type":"uint256","internalType":"uint256"}]},{"type":"error","name":"TransactionAlreadyQueued","inputs":[{"name":"txHash","type":"bytes32","internalType":"bytes32"}]},{"type":"error","name":"TransactionExecutionFailed","inputs":[{"name":"txHash","type":"bytes32","internalType":"bytes32"}]},{"type":"error","name":"TransactionNotQueued","inputs":[{"name":"txHash","type":"bytes32","internalType":"bytes32"}]},{"type":"error","name":"TransactionStale","inputs":[{"name":"txHash","type":"bytes32","internalType":"bytes32"},{"name":"eta","type":"uint256","internalType":"uint256"}]},{"type":"error","name":"VotingEnded","inputs":[{"name":"proposalId","type":"uint256","internalType":"uint256"},{"name":"endBlock","type":"uint256","internalType":"uint256"}]},{"type":"error","name":"VotingNotStarted","inputs":[{"name":"proposalId","type":"uint256","internalType":"uint256"},{"name":"startBlock","type":"uint256","internalType":"uint256"}]}],"bytecode":{"object":"0x60a03461013357601f61315738819003918201601f19168301916001600160401b0383118484101761013757808492608094604052833981010312610133576100478161014b565b6100536020830161014b565b61006b60606100646040860161014b565b940161014b565b60017f9b779b17422d0df92223018b32b4d1fa46e071723d6817e2486d003becc55f00556001600160a01b03909216928315610118576001600160a01b03821615610118576100d76100dd926100e3956080526100c78161015f565b506100d1816101d5565b50610268565b506102fb565b5061038e565b50604051612c759081610422823960805181818161063d015281816111e5015281816114ca0152818161194c01526126010152f35b6340b6daef60e01b5f525f6004525f6024525f60445260645ffd5b5f80fd5b634e487b7160e01b5f52604160045260245ffd5b51906001600160a01b038216820361013357565b6001600160a01b0381165f9081525f5160206131375f395f51905f52602052604090205460ff166101d0576001600160a01b03165f8181525f5160206131375f395f51905f5260205260408120805460ff191660011790553391905f5160206130975f395f51905f528180a4600190565b505f90565b6001600160a01b0381165f9081525f5160206130f75f395f51905f52602052604090205460ff166101d0576001600160a01b03165f8181525f5160206130f75f395f51905f5260205260408120805460ff191660011790553391907fd8aa0f3194971a2a116679f7c2090f6939c8d4e01a2a8d7e41d55e5351469e63905f5160206130975f395f51905f529080a4600190565b6001600160a01b0381165f9081525f5160206130d75f395f51905f52602052604090205460ff166101d0576001600160a01b03165f8181525f5160206130d75f395f51905f5260205260408120805460ff191660011790553391907fb09aa5aeb3702cfd50b6b62bc4532604938f21248a27a1d5ca736082b6819cc1905f5160206130975f395f51905f529080a4600190565b6001600160a01b0381165f9081525f5160206130b75f395f51905f52602052604090205460ff166101d0576001600160a01b03165f8181525f5160206130b75f395f51905f5260205260408120805460ff191660011790553391907f55435dd261a4b9b3364963f7738a7a662ad9c84396d64be3365284bb7f0a5041905f5160206130975f395f51905f529080a4600190565b6001600160a01b0381165f9081525f5160206131175f395f51905f52602052604090205460ff166101d0576001600160a01b03165f8181525f5160206131175f395f51905f5260205260408120805460ff191660011790553391907fb0f8576b4ab6d387749a5acd70a6324b30741718c2a117c20e001efd848a4dd4905f5160206130975f395f51905f529080a460019056fe6080604052600436101561001a575b3615610018575f80fd5b005b5f3560e01c8063013cf08b14611d0c57806301ffc9a714611cb657806307bd026514611c7c5780630f6a6fda14611bf05780631d99fe8f14611b79578063248a9ca314611b4f57806324ea54f414611b155780632f2ff15d14611ad857806336568abe14611a9457806336e7048a14611a795780633e4f49e614611a4a57806340e58ee5146117e05780634385963214611794578063440c9aa01461162357806356781388146114185780635ba1c1a9146113fb57806366975a48146113c1578063671dd2751461139d5780637b3c71d3146111225780637d5e81e2146110105780638244279614610fe35780638f61f4f514610fa957806391d1485414610f61578063a217fddf14610f47578063a3b634a414610c36578063a6c2660314610c12578063b1610d7e14610bf6578063c1a287e214610bd9578063c7f758a8146109d7578063d4a8dd981461098e578063d547741f1461094c578063d6159fe514610947578063d7b791d414610947578063da35c6641461092a578063ddf0b00914610759578063ece40cc11461069b578063f2b065371461066c578063f96dae0a14610628578063fbbd9009146105b95763fe0d94c10361000e5760203660031901126105b557335f9081527fdae2aa361dfd1ca020a396615627d436107c35eff9fe7738a3512819782d706960205260409020546004359060ff161561057e57610224612563565b61022d816121f9565b600881101561056a5760050361054057805f52600160205260405f2090600c82019182548042106105265762127500810190818111610512578142116104f957600d8301805461ff00191661010017905560048301856003850186600287015f5b81548110156104c1576102a181836122e2565b905460039190911b1c6001600160a01b03166102bd82866122e2565b90549060031b1c6102f76102d1848a6122e2565b50916102e9895460405194859360208501978861238c565b03601f198101835282611e11565b519020805f52600360205260ff60405f205416156104af57805f52600360205260405f2060ff19815416905561032d82846122e2565b905460039190911b1c6001600160a01b031661034983876122e2565b90549060031b1c61035a848a6122e2565b5090604051915f9080549061036e82611dd9565b91600181169081156104985750600114610466575b5050915f939181859403925af13d15610461573d6103a081611f66565b906103ae6040519283611e11565b81525f60203d92013e5b1561044a57906001916103cb82856122e2565b848060a01b0391549060031b1c16907fdc6fc8a2f9704d7c2db7209f8f258e724047d1de5bea8508db38e2bbd0b0e91961040584896122e2565b90549060031b1c610416858c6122e2565b50906104416040519283928352606060208401525f606084015260806040840152608083019061230b565b0390a30161028e565b508263b703246760e01b5f5260045260245260445ffd5b6103b8565b9091505f5260205f205f905b82821061048457505082018183610383565b600181602092548488015201910190610472565b60ff19168652505080151502830190508183610383565b63d73fde1f60e01b5f5260045260245ffd5b827f712ae1383f79ac853f8d882153778e0260ef8f03b504e2866e0593e04d2b291f5f80a260015f516020612c205f395f51905f5255005b83636422f04560e01b5f5260045260245260445260645ffd5b634e487b7160e01b5f52601160045260245ffd5b8263ebfda40560e01b5f526004526024524260445260645ffd5b8061054d610560926121f9565b906373f490c960e11b5f52600452611f48565b600560445260645ffd5b634e487b7160e01b5f52602160045260245ffd5b63e2517d3f60e01b5f52336004527fd8aa0f3194971a2a116679f7c2090f6939c8d4e01a2a8d7e41d55e5351469e6360245260445ffd5b5f80fd5b346105b55760203660031901126105b5576004355f52600660205261061260405f2060ff6002820154166003820154916105fd600160ff6004840154169201611e32565b92604051948594608086526080860190611ed2565b9260208501526040840152151560608301520390f35b346105b5575f3660031901126105b5576040517f00000000000000000000000000000000000000000000000000000000000000006001600160a01b03168152602090f35b346105b55760203660031901126105b5576004355f526003602052602060ff60405f2054166040519015158152f35b346105b55760203660031901126105b557335f9081527fad3228b676f7d3cd4284a5443f17f1962b36e491b30a40b2405849e597ba5fb5602052604090205460ff16156107425760405162461bcd60e51b815260206004820152603260248201527f47617344414f3a20706172616d65746572206368616e676573207265717569726044820152716520636f6e7472616374207570677261646560701b6064820152608490fd5b63e2517d3f60e01b5f52336004525f60245260445ffd5b346105b55760203660031901126105b557600435610776816121f9565b600881101561056a5760040361091357805f52600160205260405f206202a300420190814211610512578082600c859301555f9260028201936004600384019301905b85548110156108e5576107cc81876122e2565b905460039190911b1c6001600160a01b03166107e882866122e2565b90549060031b1c6108136107fc84866122e2565b50916102e98760405194859360208501978861238c565b519020805f52600360205260ff60405f2054166108d35790816001925f52600360205260405f208360ff1982541617905561084e82896122e2565b848060a01b0391549060031b1c16907fc1b22d6f2a2bec10fa812a85d8d1a1e34cad74f56bb504b13c38921a216a3aae61088884896122e2565b90549060031b1c61089985886122e2565b50906108c46040519283928352608060208401525f608084015260a0604084015260a083019061230b565b8960608301520390a3016107b9565b6310470a9360e01b5f5260045260245ffd5b847f9a2e42fd6722813d69113e7d0079d3d940171428df7373df9c7f7617cfda2892602085604051908152a2005b8061054d610920926121f9565b600460445260645ffd5b346105b5575f3660031901126105b5576020600254604051908152f35b6121d1565b346105b55760403660031901126105b55761001860043561096b611f32565b90610989610984825f525f602052600160405f20015490565b612423565b6124e3565b346105b55760203660031901126105b5576004355f526001602052602069152d02c7e14af68000006109cd60405f2060096007820154910154906121ec565b1015604051908152f35b346105b55760203660031901126105b5576004355f52600160205260405f20805460018060a01b0360018301541691600281019060038101600482016007830154936008840154600985015490600a86015492600b87015494600c88015496600d89015498604051808560208297549384815201905f5260205f20925f5b818110610bb7575050610a6a92500385611e11565b604051808360208295549384815201905f5260205f20925f5b818110610b9e575050610a9892500383611e11565b8254610aa381611fd5565b93610ab16040519586611e11565b81855260208501905f5260205f205f915b838310610b725750505050600501610ad990611e32565b926040519c8d9c8d5260208d015260408c016101c090526101c08c01610afe91611ef6565b8b810360608d0152610b0f91612146565b8a810360808c0152610b2091612179565b89810360a08b0152610b3191611ed2565b9660c089015260e088015261010087015261012086015261014085015261016084015260ff8116151561018084015260081c60ff1615156101a08301520390f35b600160208192604051610b9081610b89818961230b565b0382611e11565b815201920192019190610ac2565b8454835260019485019487945060209093019201610a83565b84546001600160a01b0316835260019485019489945060209093019201610a55565b346105b5575f3660031901126105b5576020604051621275008152f35b346105b5575f3660031901126105b557602060405161c4e08152f35b346105b5575f3660031901126105b557602060405169021e19e0c9bab24000008152f35b346105b55760c03660031901126105b5576004356001600160401b0381116105b557610c66903690600401611fec565b6024356001600160401b0381116105b557610c8590369060040161205a565b6044356001600160401b0381116105b557610ca49036906004016120b7565b916064356001600160401b0381116105b557610cc4903690600401611fb7565b6084356001600160401b0381116105b557610ce3903690600401611fb7565b9360a4359360ff85168095036105b557335f9081527feae0d737dd2dbe3a654133e09c5ef4a4bc0a424ac8d5f2c497152e3ba2bc345b602052604090205460ff1615610f1057610d32936125bc565b6040519260a084018481106001600160401b03821117610efc57604052818452602084019381855260408101908482526060810142815260808201925f8452855f52600660205260405f20925183556001830197519788516001600160401b038111610efc57602099610daf82610da98554611dd9565b856123d6565b8a90601f8311600114610e6a57610e4f9794600494610e0e857ffb8b7ea0ed3abc45bce646736354b03e5a7e5974f7db1e09af81a5d9c01dc1369c9a968e9f9a9660ff965f92610e5f575b50508160011b915f199060031b1c19161790565b90555b511660ff60028401911660ff19825416179055516003820155019051151560ff80198354169116179055604051928392604084526040840190611ed2565b90878301520390a2604051908152f35b015190505f80610dfa565b90601f19831691845f52815f20925f5b818110610ee55750946001858d9e999560ff95610e4f9d9a957ffb8b7ea0ed3abc45bce646736354b03e5a7e5974f7db1e09af81a5d9c01dc1369f9d9960049b10610ecd575b505050811b019055610e11565b01515f1960f88460031b161c191690555f8080610ec0565b92938e600181928786015181550195019301610e7a565b634e487b7160e01b5f52604160045260245ffd5b63e2517d3f60e01b5f52336004527fb0f8576b4ab6d387749a5acd70a6324b30741718c2a117c20e001efd848a4dd460245260445ffd5b346105b5575f3660031901126105b55760206040515f8152f35b346105b55760403660031901126105b557610f7a611f32565b6004355f525f60205260405f209060018060a01b03165f52602052602060ff60405f2054166040519015158152f35b346105b5575f3660031901126105b55760206040517fb09aa5aeb3702cfd50b6b62bc4532604938f21248a27a1d5ca736082b6819cc18152f35b346105b55760203660031901126105b5576004355f5260016020526020600260405f200154604051908152f35b346105b55760803660031901126105b5576004356001600160401b0381116105b557611040903690600401611fec565b6024356001600160401b0381116105b55761105f90369060040161205a565b906044356001600160401b0381116105b55761107f9036906004016120b7565b6064356001600160401b0381116105b55761109e903690600401611fb7565b335f9081527f3412d5605ac6cd444957cedb533e5dacad6378b4bc819ebe3652188a665066d5602052604090205490919060ff16156110eb576020936110e3936125bc565b604051908152f35b63e2517d3f60e01b5f52336004527fb09aa5aeb3702cfd50b6b62bc4532604938f21248a27a1d5ca736082b6819cc160245260445ffd5b346105b55760603660031901126105b55760043561113e611f56565b6044356001600160401b0381116105b55761115f60ff913690600401611fb7565b91611168612563565b166002811161138b57825f52600160205260405f209060018060a01b036001830154161561137857611199846121f9565b600881101561056a5760010361136157600e82019160018060a01b0333165f528260205260ff60405f20541661134a576040516309ab24eb60e41b8152336004820152906020826024817f00000000000000000000000000000000000000000000000000000000000000006001600160a01b03165afa91821561133f575f9261130b575b5081156112ef57335f90815260209485526040808220805460ff19908116600117909155600f84019096529020805490941683179093557fb8e138887d0aa13bab447e82de9d5c1777041ecd21ca36ba824ff1e6c07ddda492826112c4576008016112898282546121ec565b90555b604051918252602082015260606040820152806112ae33946060830190611ed2565b0390a360015f516020612c205f395f51905f5255005b600183036112e1576007016112da8282546121ec565b905561128c565b6009016112da8282546121ec565b630bfb402b60e11b5f52336004525f602452600160445260645ffd5b9091506020813d602011611337575b8161132760209383611e11565b810103126105b55751908661121d565b3d915061131a565b6040513d5f823e3d90fd5b846304f9da6360e01b5f526004523360245260445ffd5b61136e8461054d816121f9565b600160445260645ffd5b8363428d06a960e01b5f5260045260245ffd5b632081b22360e01b5f5260045260245ffd5b346105b5575f3660031901126105b557602060405169152d02c7e14af68000008152f35b346105b5575f3660031901126105b55760206040517fb0f8576b4ab6d387749a5acd70a6324b30741718c2a117c20e001efd848a4dd48152f35b346105b5575f3660031901126105b55760206040516202a3008152f35b346105b55760403660031901126105b557600435611434611f56565b602060ff604051926114468385611e11565b5f8452611451612563565b166002811161138b575f84815260018084526040909120908101546001600160a01b03161561161057611483856121f9565b600881101561056a5760010361160357335f908152600e820180855260409091205490939060ff166115ec576040516309ab24eb60e41b81523360048201529181836024817f00000000000000000000000000000000000000000000000000000000000000006001600160a01b03165afa92831561133f575f936115bd575b5082156112ef57335f8181529583526040808720805460ff19908116600117909155918752600f83018452909520805490951684179094557fb8e138887d0aa13bab447e82de9d5c1777041ecd21ca36ba824ff1e6c07ddda493836115925760080161156f8382546121ec565b90555b60405192835282015260606040820152806112ae33946060830190611ed2565b600184036115af576007016115a88382546121ec565b9055611572565b6009016115a88382546121ec565b9092508181813d83116115e5575b6115d58183611e11565b810103126105b557519187611502565b503d6115cb565b856304f9da6360e01b5f526004523360245260445ffd5b61136e8561054d816121f9565b8463428d06a960e01b5f5260045260245ffd5b346105b55760403660031901126105b5576004356024356001600160401b0381116105b557366023820112156105b5578060040135906001600160401b0382116105b55736602483830101116105b557335f9081527f8a40f0b47fdc2a0ce293b772acfc7508c8315a4d462786c1adc3a56f92ca2d05602052604090205460ff161561175d5760c06024917f6d7a31bec2397428bee1ca945cdae021c411286b10a794247c7d16555f36edf693855f526001602052600d60405f2001600160ff198254161790558060405194859360608552600660608601526518d85b98d95b60d21b608086015288602086015260a060408601528260a086015201848401375f828201840152601f01601f19168101030190a17f789cf55be980739dad1d0699b93b58e806b51c9d96619bfa8fe0a28abaa7b30c5f80a2005b63e2517d3f60e01b5f52336004527f55435dd261a4b9b3364963f7738a7a662ad9c84396d64be3365284bb7f0a504160245260445ffd5b346105b55760403660031901126105b5576117ad611f32565b6004355f526001602052600e60405f20019060018060a01b03165f52602052602060ff60405f2054166040519015158152f35b346105b55760203660031901126105b5576004355f81815260016020819052604090912001546001600160a01b03163303611a065761181e816121f9565b906008821015918261056a576002811480156119f9575b8381156119e9575b5061198e57815f52600160205260405f209261056a576001811461191d575b50600d8201805460ff1916600117905560048201916003810190600c8101906002015f5b81548110156118f65780611896600192846122e2565b838060a01b0391549060031b1c166118ae82876122e2565b90549060031b1c6118da6118c2848b6122e2565b50916102e9885460405194859360208501978861238c565b5190205f52600360205260405f2060ff19815416905501611880565b847f789cf55be980739dad1d0699b93b58e806b51c9d96619bfa8fe0a28abaa7b30c5f80a2005b60018301546040516309ab24eb60e41b81526001600160a01b03918216600482015290602090829060249082907f0000000000000000000000000000000000000000000000000000000000000000165afa801561133f575f906119ad575b69021e19e0c9bab240000091501061185c575b6119a4916373f490c960e11b5f52600452611f48565b5f60445260645ffd5b506020813d6020116119e1575b816119c760209383611e11565b810103126105b55769021e19e0c9bab2400000905161197b565b3d91506119ba565b905061056a57600681148361183d565b505f925060078114611835565b606460405162461bcd60e51b815260206004820152602060248201527f47617344414f3a206f6e6c792070726f706f7365722063616e2063616e63656c6044820152fd5b346105b55760203660031901126105b557611a666004356121f9565b604051600882101561056a576020918152f35b346105b5575f3660031901126105b5576020604051600a8152f35b346105b55760403660031901126105b557611aad611f32565b336001600160a01b03821603611ac957610018906004356124e3565b63334bd91960e11b5f5260045ffd5b346105b55760403660031901126105b557610018600435611af7611f32565b90611b10610984825f525f602052600160405f20015490565b61245b565b346105b5575f3660031901126105b55760206040517f55435dd261a4b9b3364963f7738a7a662ad9c84396d64be3365284bb7f0a50418152f35b346105b55760203660031901126105b55760206110e36004355f525f602052600160405f20015490565b346105b55760203660031901126105b5576004355f52600660205260405f208054611ba660018301611e32565b9160ff6002820154169060ff600460038301549201541690611bda604051958695865260a0602087015260a0860190611ed2565b9260408501526060840152151560808301520390f35b346105b5575f3660031901126105b55760405180602060045491828152019060045f527f8a35acfbc15ff81a39ae7d344fd709f28e8600b4aa8c65c6b64bfe7fe36bd19b905f5b818110611c6657611c6285611c4e81870382611e11565b604051918291602083526020830190611ef6565b0390f35b8254845260209093019260019283019201611c37565b346105b5575f3660031901126105b55760206040517fd8aa0f3194971a2a116679f7c2090f6939c8d4e01a2a8d7e41d55e5351469e638152f35b346105b55760203660031901126105b55760043563ffffffff60e01b81168091036105b557602090637965db0b60e01b8114908115611cfb575b506040519015158152f35b6301ffc9a760e01b14905082611cf0565b346105b55760203660031901126105b5576004355f52600160205260405f20805460018060a01b036001830154169160ff611d4960058301611e32565b600683015492600781015460088201546009830154600a84015491600b85015493611d98600d600c880154970154976040519c8d9c8d5260208d015261018060408d01526101808c0190611ed2565b9860608b015260808a015260a089015260c088015260e0870152610100860152610120850152818116151561014085015260081c1615156101608301520390f35b90600182811c92168015611e07575b6020831014611df357565b634e487b7160e01b5f52602260045260245ffd5b91607f1691611de8565b90601f801991011681019081106001600160401b03821117610efc57604052565b9060405191825f825492611e4584611dd9565b8084529360018116908115611eb05750600114611e6c575b50611e6a92500383611e11565b565b90505f9291925260205f20905f915b818310611e94575050906020611e6a928201015f611e5d565b6020919350806001915483858901015201910190918492611e7b565b905060209250611e6a94915060ff191682840152151560051b8201015f611e5d565b805180835260209291819084018484015e5f828201840152601f01601f1916010190565b90602080835192838152019201905f5b818110611f135750505090565b82516001600160a01b0316845260209384019390920191600101611f06565b602435906001600160a01b03821682036105b557565b600881101561056a57602452565b6024359060ff821682036105b557565b6001600160401b038111610efc57601f01601f191660200190565b929192611f8d82611f66565b91611f9b6040519384611e11565b8294818452818301116105b5578281602093845f960137010152565b9080601f830112156105b557816020611fd293359101611f81565b90565b6001600160401b038111610efc5760051b60200190565b9080601f830112156105b55781359061200482611fd5565b926120126040519485611e11565b82845260208085019360051b8201019182116105b557602001915b81831061203a5750505090565b82356001600160a01b03811681036105b55781526020928301920161202d565b9080601f830112156105b557813561207181611fd5565b9261207f6040519485611e11565b81845260208085019260051b8201019283116105b557602001905b8282106120a75750505090565b813581526020918201910161209a565b81601f820112156105b5578035906120ce82611fd5565b926120dc6040519485611e11565b82845260208085019360051b830101918183116105b55760208101935b83851061210857505050505090565b84356001600160401b0381116105b557820183603f820112156105b55760209161213b8583604086809601359101611f81565b8152019401936120f9565b90602080835192838152019201905f5b8181106121635750505090565b8251845260209384019390920191600101612156565b9080602083519182815201916020808360051b8301019401925f915b8383106121a457505050505090565b90919293946020806121c2600193601f198682030187528951611ed2565b97019301930191939290612195565b346105b5575f3660031901126105b557602060405160018152f35b9190820180921161051257565b805f52600160205260405f209060018060a01b03600183015416156122d05750600d81015460ff81166122c95760081c60ff166122c357600a8101544311156122be57600b8101544311156122b85760078101546008820154811190811591612296575b5061229057600c0154801561228a576212750081018091116105125742101561228557600590565b600690565b50600490565b50600390565b600983015469152d02c7e14af680000092506122b1916121ec565b105f61225d565b50600190565b505f90565b50600790565b5050600290565b63428d06a960e01b5f5260045260245ffd5b80548210156122f7575f5260205f2001905f90565b634e487b7160e01b5f52603260045260245ffd5b5f929181549161231a83611dd9565b808352926001811690811561236f575060011461233657505050565b5f9081526020812093945091925b838310612355575060209250010190565b600181602092949394548385870101520191019190612344565b915050602093945060ff929192191683830152151560051b010190565b9493926060926123b69260018060a01b03168752602087015260806040870152608086019061230b565b930152565b5f5b8281106123c957505050565b5f828201556001016123bd565b91601f82116123e457505050565b8082116123f057505050565b611e6a925f5260205f20916020601f830160051c921061241b575b601f82910160051c0391016123bb565b5f915061240b565b5f8181526020818152604080832033845290915290205460ff16156124455750565b63e2517d3f60e01b5f523360045260245260445ffd5b5f818152602081815260408083206001600160a01b038616845290915290205460ff166124dd575f818152602081815260408083206001600160a01b0395909516808452949091528120805460ff19166001179055339291907f2f8788117e7eff1d82e926ec794901d17c78024a50270940304540a733656f0d9080a4600190565b50505f90565b5f818152602081815260408083206001600160a01b038616845290915290205460ff16156124dd575f818152602081815260408083206001600160a01b0395909516808452949091528120805460ff19169055339291907ff6391f5c32d9c69d2a47ea670b442974b53935d1edc7fd64eb21e047a839171b9080a4600190565b60025f516020612c205f395f51905f52541461258c5760025f516020612c205f395f51905f5255565b633ee5aeb560e01b5f5260045ffd5b918181106125a857505050565b611e6a925f528060205f20019103906123bb565b90929181518451808214801590612bb6575b612b9b575050815115612b80578151600a8111612b6957506040516309ab24eb60e41b81523360048201526020816024817f00000000000000000000000000000000000000000000000000000000000000006001600160a01b03165afa90811561133f575f91612b37575b5069021e19e0c9bab24000008110612b135750600254935f1985146105125760018501600255845f52600160205260405f2085815560018101336bffffffffffffffffffffffff60a01b825416179055600281018451906001600160401b038211610efc57600160401b8211610efc576126b88282548184558361259b565b60208601905f5260205f205f5b838110612af65750505050600381018251906001600160401b038211610efc57600160401b8211610efc576126ff8282548184558361259b565b60208401905f5260205f205f5b838110612ae25750505050600481018351600160401b8111610efc578154818355808210612a64575b5060208501915f5260205f20915f905b82821061298f57505050506005810185516001600160401b038111610efc57612778816127728454611dd9565b846123d6565b6020601f821160011461292d5790806127a5925f91612922575b508160011b915f199060031b1c19161790565b90555b845160208601206006820155600143019283431161051257600a82019184835561c4e143018095116105125790600b889596949392019586556127ea33612bc1565b508051916127f783611fd5565b926128056040519485611e11565b808452612814601f1991611fd5565b015f5b81811061290c57505061284b905496549361283d6040519660e0885260e0880190611ef6565b908682036020880152612146565b8481036040860152825180825260208201916020808360051b8301019501925f915b8383106128d35750505050509483926128b3837f7d84a6263ae0d98d3329bd7b46bb4e8d6f98cd35a7adb45c274c8b7fd5ebd5e09798866128cd96036060880152612179565b91608085015260a084015282810360c08401523396611ed2565b0390a390565b919396979998509193946020806128f6600193601f198682030187528a51611ed2565b98019301930190928b989997969594929361286d565b606060208683018101919091528b985001612817565b90508801515f612792565b601f19821690835f52805f20915f5b8a828210612977575050908360019493921061295f575b5050811b0190556127a8565b8901515f1960f88460031b161c191690555f80612953565b6001849560209395849301518155019401920161293c565b80518051906001600160401b038211610efc576129b6826129b08854611dd9565b886123d6565b602090601f83116001146129fb57926129ec836001959460209487965f92610e5f5750508160011b915f199060031b1c19161790565b87555b01940191019092612745565b90601f19831691875f52815f20925f5b818110612a4c5750936020936001969387969383889510612a34575b505050811b0187556129ef565b01515f1960f88460031b161c191690555f8080612a27565b92936020600181928786015181550195019301612a0b565b825f52818060205f20019103905f5b828110612a81575050612735565b806001918301612a918154611dd9565b9081612aa0575b505001612a73565b81601f5f93118514612ab65750555b5f80612a98565b81835260208320612ad291601f0160051c8419019086016123bb565b8082528160208120915555612aaf565b60019060208451940193818401550161270c565b82516001600160a01b0316818301556020909201916001016126c5565b630bfb402b60e11b5f523360045260245269021e19e0c9bab240000060445260645ffd5b90506020813d602011612b61575b81612b5260209383611e11565b810103126105b557515f612639565b3d9150612b45565b6341adca4160e11b5f52600452600a60245260445ffd5b6340b6daef60e01b5f525f6004525f6024525f60445260645ffd5b8251916340b6daef60e01b5f5260045260245260445260645ffd5b5082518214156125ce565b805f52600560205260405f2054155f146122be57600454600160401b811015610efc57806001612bf6920160045560046122e2565b81549060031b9083821b915f19901b1916179055600454905f52600560205260405f205560019056fe9b779b17422d0df92223018b32b4d1fa46e071723d6817e2486d003becc55f00a26469706673582212201b510c0dbc18bed6ed99f545754b8d4466515d6cad67fe71f10a24befd0bc58964736f6c634300082100332f8788117e7eff1d82e926ec794901d17c78024a50270940304540a733656f0d8a40f0b47fdc2a0ce293b772acfc7508c8315a4d462786c1adc3a56f92ca2d053412d5605ac6cd444957cedb533e5dacad6378b4bc819ebe3652188a665066d5dae2aa361dfd1ca020a396615627d436107c35eff9fe7738a3512819782d7069eae0d737dd2dbe3a654133e09c5ef4a4bc0a424ac8d5f2c497152e3ba2bc345bad3228b676f7d3cd4284a5443f17f1962b36e491b30a40b2405849e597ba5fb5","linkReferences":{}},"methodIdentifiers":{"AI_CONTROLLER_ROLE()":"66975a48","DEFAULT_ADMIN_ROLE()":"a217fddf","EXECUTOR_ROLE()":"07bd0265","GRACE_PERIOD()":"c1a287e2","GUARDIAN_ROLE()":"24ea54f4","PROPOSAL_MAX_OPERATIONS()":"36e7048a","PROPOSAL_THRESHOLD()":"a6c26603","PROPOSAL_THRESHOLD_PERCENT()":"d7b791d4","PROPOSER_ROLE()":"8f61f4f5","QUORUM_VOTES()":"671dd275","TIMELOCK_DELAY()":"5ba1c1a9","VOTING_DELAY()":"d6159fe5","VOTING_PERIOD()":"b1610d7e","aiRecommendations(uint256)":"1d99fe8f","cancel(uint256)":"40e58ee5","castVote(uint256,uint8)":"56781388","castVoteWithReason(uint256,uint8,string)":"7b3c71d3","execute(uint256)":"fe0d94c1","getAIRecommendation(uint256)":"fbbd9009","getProposal(uint256)":"c7f758a8","getProposalActionsCount(uint256)":"82442796","getProposers()":"0f6a6fda","getRoleAdmin(bytes32)":"248a9ca3","governanceToken()":"f96dae0a","grantRole(bytes32,address)":"2f2ff15d","guardianCancel(uint256,string)":"440c9aa0","hasRole(bytes32,address)":"91d14854","hasVoted(uint256,address)":"43859632","proposalCount()":"da35c664","proposals(uint256)":"013cf08b","propose(address[],uint256[],bytes[],string)":"7d5e81e2","proposeWithAIRecommendation(address[],uint256[],bytes[],string,string,uint8)":"a3b634a4","queue(uint256)":"ddf0b009","queuedTransactions(bytes32)":"f2b06537","quorumReached(uint256)":"d4a8dd98","renounceRole(bytes32,address)":"36568abe","revokeRole(bytes32,address)":"d547741f","setProposalThreshold(uint256)":"ece40cc1","state(uint256)":"3e4f49e6","supportsInterface(bytes4)":"01ffc9a7"},"id":2}