{"abi":[{"type":"constructor","inputs":[{"name":"_admin","type":"address","internalType":"address"},{"name":"_feeRecipient","type":"address","internalType":"address"}],"stateMutability":"nonpayable"},{"type":"receive","stateMutability":"payable"},{"type":"function","name":"BASIS_POINTS","inputs":[],"outputs":[{"name":"","type":"uint256","internalType":"uint256"}],"stateMutability":"view"},{"type":"function","name":"DEFAULT_ADMIN_ROLE","inputs":[],"outputs":[{"name":"","type":"bytes32","internalType":"bytes32"}],"stateMutability":"view"},{"type":"function","name":"MAX_DEADLINE","inputs":[],"outputs":[{"name":"","type":"uint256","internalType":"uint256"}],"stateMutability":"view"},{"type":"function","name":"MAX_FEE_PERCENT","inputs":[],"outputs":[{"name":"","type":"uint256","internalType":"uint256"}],"stateMutability":"view"},{"type":"function","name":"MAX_HISTORY","inputs":[],"outputs":[{"name":"","type":"uint256","internalType":"uint256"}],"stateMutability":"view"},{"type":"function","name":"MIN_DEADLINE","inputs":[],"outputs":[{"name":"","type":"uint256","internalType":"uint256"}],"stateMutability":"view"},{"type":"function","name":"PAYMASTER_ROLE","inputs":[],"outputs":[{"name":"","type":"bytes32","internalType":"bytes32"}],"stateMutability":"view"},{"type":"function","name":"RELAYER_OPERATOR_ROLE","inputs":[],"outputs":[{"name":"","type":"bytes32","internalType":"bytes32"}],"stateMutability":"view"},{"type":"function","name":"WHITELIST_MANAGER_ROLE","inputs":[],"outputs":[{"name":"","type":"bytes32","internalType":"bytes32"}],"stateMutability":"view"},{"type":"function","name":"addToWhitelist","inputs":[{"name":"account","type":"address","internalType":"address"}],"outputs":[],"stateMutability":"nonpayable"},{"type":"function","name":"blacklisted","inputs":[{"name":"","type":"address","internalType":"address"}],"outputs":[{"name":"","type":"bool","internalType":"bool"}],"stateMutability":"view"},{"type":"function","name":"config","inputs":[],"outputs":[{"name":"maxGasPrice","type":"uint256","internalType":"uint256"},{"name":"minGasPrice","type":"uint256","internalType":"uint256"},{"name":"relayFeePercent","type":"uint256","internalType":"uint256"},{"name":"maxTransactionValue","type":"uint256","internalType":"uint256"},{"name":"requireWhitelist","type":"bool","internalType":"bool"},{"name":"paused","type":"bool","internalType":"bool"}],"stateMutability":"view"},{"type":"function","name":"eip712Domain","inputs":[],"outputs":[{"name":"fields","type":"bytes1","internalType":"bytes1"},{"name":"name","type":"string","internalType":"string"},{"name":"version","type":"string","internalType":"string"},{"name":"chainId","type":"uint256","internalType":"uint256"},{"name":"verifyingContract","type":"address","internalType":"address"},{"name":"salt","type":"bytes32","internalType":"bytes32"},{"name":"extensions","type":"uint256[]","internalType":"uint256[]"}],"stateMutability":"view"},{"type":"function","name":"executeBatch","inputs":[{"name":"_transactions","type":"tuple[]","internalType":"struct GaslessRelayer.MetaTransaction[]","components":[{"name":"from","type":"address","internalType":"address"},{"name":"to","type":"address","internalType":"address"},{"name":"value","type":"uint256","internalType":"uint256"},{"name":"data","type":"bytes","internalType":"bytes"},{"name":"nonce","type":"uint256","internalType":"uint256"},{"name":"deadline","type":"uint256","internalType":"uint256"}]},{"name":"batchSignature","type":"bytes","internalType":"bytes"}],"outputs":[{"name":"successCount","type":"uint256","internalType":"uint256"}],"stateMutability":"nonpayable"},{"type":"function","name":"executeMetaTransaction","inputs":[{"name":"from","type":"address","internalType":"address"},{"name":"to","type":"address","internalType":"address"},{"name":"value","type":"uint256","internalType":"uint256"},{"name":"data","type":"bytes","internalType":"bytes"},{"name":"nonce","type":"uint256","internalType":"uint256"},{"name":"deadline","type":"uint256","internalType":"uint256"},{"name":"signature","type":"bytes","internalType":"bytes"}],"outputs":[{"name":"success","type":"bool","internalType":"bool"}],"stateMutability":"nonpayable"},{"type":"function","name":"executeUserOperation","inputs":[{"name":"op","type":"tuple","internalType":"struct GaslessRelayer.UserOperation","components":[{"name":"sender","type":"address","internalType":"address"},{"name":"nonce","type":"uint256","internalType":"uint256"},{"name":"initCode","type":"bytes","internalType":"bytes"},{"name":"callData","type":"bytes","internalType":"bytes"},{"name":"callGasLimit","type":"uint256","internalType":"uint256"},{"name":"verificationGasLimit","type":"uint256","internalType":"uint256"},{"name":"preVerificationGas","type":"uint256","internalType":"uint256"},{"name":"maxFeePerGas","type":"uint256","internalType":"uint256"},{"name":"maxPriorityFeePerGas","type":"uint256","internalType":"uint256"},{"name":"paymasterAndData","type":"bytes","internalType":"bytes"},{"name":"signature","type":"bytes","internalType":"bytes"}]},{"name":"beneficiary","type":"address","internalType":"address"}],"outputs":[{"name":"actualGasCost","type":"uint256","internalType":"uint256"}],"stateMutability":"nonpayable"},{"type":"function","name":"executedTransactions","inputs":[{"name":"","type":"bytes32","internalType":"bytes32"}],"outputs":[{"name":"","type":"bool","internalType":"bool"}],"stateMutability":"view"},{"type":"function","name":"feeRecipient","inputs":[],"outputs":[{"name":"","type":"address","internalType":"address"}],"stateMutability":"view"},{"type":"function","name":"getDomainSeparator","inputs":[],"outputs":[{"name":"","type":"bytes32","internalType":"bytes32"}],"stateMutability":"view"},{"type":"function","name":"getNextNonce","inputs":[{"name":"user","type":"address","internalType":"address"}],"outputs":[{"name":"","type":"uint256","internalType":"uint256"}],"stateMutability":"view"},{"type":"function","name":"getRoleAdmin","inputs":[{"name":"role","type":"bytes32","internalType":"bytes32"}],"outputs":[{"name":"","type":"bytes32","internalType":"bytes32"}],"stateMutability":"view"},{"type":"function","name":"getTransactionByIndex","inputs":[{"name":"index","type":"uint256","internalType":"uint256"}],"outputs":[{"name":"","type":"tuple","internalType":"struct GaslessRelayer.RelayedTransaction","components":[{"name":"txHash","type":"bytes32","internalType":"bytes32"},{"name":"from","type":"address","internalType":"address"},{"name":"to","type":"address","internalType":"address"},{"name":"value","type":"uint256","internalType":"uint256"},{"name":"gasUsed","type":"uint256","internalType":"uint256"},{"name":"fee","type":"uint256","internalType":"uint256"},{"name":"timestamp","type":"uint256","internalType":"uint256"},{"name":"success","type":"bool","internalType":"bool"}]}],"stateMutability":"view"},{"type":"function","name":"getTransactionCount","inputs":[],"outputs":[{"name":"","type":"uint256","internalType":"uint256"}],"stateMutability":"view"},{"type":"function","name":"getTransactions","inputs":[{"name":"startIndex","type":"uint256","internalType":"uint256"},{"name":"count","type":"uint256","internalType":"uint256"}],"outputs":[{"name":"","type":"tuple[]","internalType":"struct GaslessRelayer.RelayedTransaction[]","components":[{"name":"txHash","type":"bytes32","internalType":"bytes32"},{"name":"from","type":"address","internalType":"address"},{"name":"to","type":"address","internalType":"address"},{"name":"value","type":"uint256","internalType":"uint256"},{"name":"gasUsed","type":"uint256","internalType":"uint256"},{"name":"fee","type":"uint256","internalType":"uint256"},{"name":"timestamp","type":"uint256","internalType":"uint256"},{"name":"success","type":"bool","internalType":"bool"}]}],"stateMutability":"view"},{"type":"function","name":"getUserFees","inputs":[{"name":"user","type":"address","internalType":"address"}],"outputs":[{"name":"","type":"uint256","internalType":"uint256"}],"stateMutability":"view"},{"type":"function","name":"grantRole","inputs":[{"name":"role","type":"bytes32","internalType":"bytes32"},{"name":"account","type":"address","internalType":"address"}],"outputs":[],"stateMutability":"nonpayable"},{"type":"function","name":"hasRole","inputs":[{"name":"role","type":"bytes32","internalType":"bytes32"},{"name":"account","type":"address","internalType":"address"}],"outputs":[{"name":"","type":"bool","internalType":"bool"}],"stateMutability":"view"},{"type":"function","name":"invalidateNonce","inputs":[{"name":"nonce","type":"uint256","internalType":"uint256"}],"outputs":[],"stateMutability":"nonpayable"},{"type":"function","name":"isNonceUsed","inputs":[{"name":"user","type":"address","internalType":"address"},{"name":"nonce","type":"uint256","internalType":"uint256"}],"outputs":[{"name":"","type":"bool","internalType":"bool"}],"stateMutability":"view"},{"type":"function","name":"isWhitelisted","inputs":[{"name":"account","type":"address","internalType":"address"}],"outputs":[{"name":"","type":"bool","internalType":"bool"}],"stateMutability":"view"},{"type":"function","name":"nonces","inputs":[{"name":"","type":"address","internalType":"address"}],"outputs":[{"name":"","type":"uint256","internalType":"uint256"}],"stateMutability":"view"},{"type":"function","name":"relayFeesCollected","inputs":[{"name":"","type":"address","internalType":"address"}],"outputs":[{"name":"","type":"uint256","internalType":"uint256"}],"stateMutability":"view"},{"type":"function","name":"removeFromWhitelist","inputs":[{"name":"account","type":"address","internalType":"address"}],"outputs":[],"stateMutability":"nonpayable"},{"type":"function","name":"renounceRole","inputs":[{"name":"role","type":"bytes32","internalType":"bytes32"},{"name":"callerConfirmation","type":"address","internalType":"address"}],"outputs":[],"stateMutability":"nonpayable"},{"type":"function","name":"revokeRole","inputs":[{"name":"role","type":"bytes32","internalType":"bytes32"},{"name":"account","type":"address","internalType":"address"}],"outputs":[],"stateMutability":"nonpayable"},{"type":"function","name":"setBlacklist","inputs":[{"name":"account","type":"address","internalType":"address"},{"name":"isBlacklisted","type":"bool","internalType":"bool"}],"outputs":[],"stateMutability":"nonpayable"},{"type":"function","name":"supportsInterface","inputs":[{"name":"interfaceId","type":"bytes4","internalType":"bytes4"}],"outputs":[{"name":"","type":"bool","internalType":"bool"}],"stateMutability":"view"},{"type":"function","name":"togglePause","inputs":[],"outputs":[],"stateMutability":"nonpayable"},{"type":"function","name":"totalFeesCollected","inputs":[],"outputs":[{"name":"","type":"uint256","internalType":"uint256"}],"stateMutability":"view"},{"type":"function","name":"transactionHistory","inputs":[{"name":"","type":"uint256","internalType":"uint256"}],"outputs":[{"name":"","type":"bytes32","internalType":"bytes32"}],"stateMutability":"view"},{"type":"function","name":"transactions","inputs":[{"name":"","type":"bytes32","internalType":"bytes32"}],"outputs":[{"name":"txHash","type":"bytes32","internalType":"bytes32"},{"name":"from","type":"address","internalType":"address"},{"name":"to","type":"address","internalType":"address"},{"name":"value","type":"uint256","internalType":"uint256"},{"name":"gasUsed","type":"uint256","internalType":"uint256"},{"name":"fee","type":"uint256","internalType":"uint256"},{"name":"timestamp","type":"uint256","internalType":"uint256"},{"name":"success","type":"bool","internalType":"bool"}],"stateMutability":"view"},{"type":"function","name":"updateConfig","inputs":[{"name":"_maxGasPrice","type":"uint256","internalType":"uint256"},{"name":"_minGasPrice","type":"uint256","internalType":"uint256"},{"name":"_relayFeePercent","type":"uint256","internalType":"uint256"},{"name":"_maxTransactionValue","type":"uint256","internalType":"uint256"},{"name":"_requireWhitelist","type":"bool","internalType":"bool"}],"outputs":[],"stateMutability":"nonpayable"},{"type":"function","name":"updateFeeRecipient","inputs":[{"name":"_feeRecipient","type":"address","internalType":"address"}],"outputs":[],"stateMutability":"nonpayable"},{"type":"function","name":"usedNonces","inputs":[{"name":"","type":"address","internalType":"address"},{"name":"","type":"uint256","internalType":"uint256"}],"outputs":[{"name":"","type":"bool","internalType":"bool"}],"stateMutability":"view"},{"type":"function","name":"userOperationNonces","inputs":[{"name":"","type":"address","internalType":"address"}],"outputs":[{"name":"","type":"uint256","internalType":"uint256"}],"stateMutability":"view"},{"type":"function","name":"withdrawFees","inputs":[],"outputs":[],"stateMutability":"nonpayable"},{"type":"event","name":"BatchExecuted","inputs":[{"name":"batchHash","type":"bytes32","indexed":true,"internalType":"bytes32"},{"name":"relayer","type":"address","indexed":true,"internalType":"address"},{"name":"transactionCount","type":"uint256","indexed":false,"internalType":"uint256"},{"name":"totalFees","type":"uint256","indexed":false,"internalType":"uint256"}],"anonymous":false},{"type":"event","name":"BlacklistStatusUpdated","inputs":[{"name":"account","type":"address","indexed":true,"internalType":"address"},{"name":"blacklisted","type":"bool","indexed":false,"internalType":"bool"}],"anonymous":false},{"type":"event","name":"EIP712DomainChanged","inputs":[],"anonymous":false},{"type":"event","name":"FeeRecipientUpdated","inputs":[{"name":"oldRecipient","type":"address","indexed":false,"internalType":"address"},{"name":"newRecipient","type":"address","indexed":false,"internalType":"address"}],"anonymous":false},{"type":"event","name":"FeesWithdrawn","inputs":[{"name":"recipient","type":"address","indexed":true,"internalType":"address"},{"name":"amount","type":"uint256","indexed":false,"internalType":"uint256"}],"anonymous":false},{"type":"event","name":"MetaTransactionExecuted","inputs":[{"name":"txHash","type":"bytes32","indexed":true,"internalType":"bytes32"},{"name":"from","type":"address","indexed":true,"internalType":"address"},{"name":"to","type":"address","indexed":true,"internalType":"address"},{"name":"value","type":"uint256","indexed":false,"internalType":"uint256"},{"name":"fee","type":"uint256","indexed":false,"internalType":"uint256"},{"name":"success","type":"bool","indexed":false,"internalType":"bool"}],"anonymous":false},{"type":"event","name":"NonceInvalidated","inputs":[{"name":"user","type":"address","indexed":true,"internalType":"address"},{"name":"nonce","type":"uint256","indexed":false,"internalType":"uint256"}],"anonymous":false},{"type":"event","name":"RelayConfigUpdated","inputs":[{"name":"maxGasPrice","type":"uint256","indexed":false,"internalType":"uint256"},{"name":"minGasPrice","type":"uint256","indexed":false,"internalType":"uint256"},{"name":"relayFeePercent","type":"uint256","indexed":false,"internalType":"uint256"},{"name":"maxTransactionValue","type":"uint256","indexed":false,"internalType":"uint256"}],"anonymous":false},{"type":"event","name":"RelayPaused","inputs":[{"name":"paused","type":"bool","indexed":false,"internalType":"bool"}],"anonymous":false},{"type":"event","name":"RoleAdminChanged","inputs":[{"name":"role","type":"bytes32","indexed":true,"internalType":"bytes32"},{"name":"previousAdminRole","type":"bytes32","indexed":true,"internalType":"bytes32"},{"name":"newAdminRole","type":"bytes32","indexed":true,"internalType":"bytes32"}],"anonymous":false},{"type":"event","name":"RoleGranted","inputs":[{"name":"role","type":"bytes32","indexed":true,"internalType":"bytes32"},{"name":"account","type":"address","indexed":true,"internalType":"address"},{"name":"sender","type":"address","indexed":true,"internalType":"address"}],"anonymous":false},{"type":"event","name":"RoleRevoked","inputs":[{"name":"role","type":"bytes32","indexed":true,"internalType":"bytes32"},{"name":"account","type":"address","indexed":true,"internalType":"address"},{"name":"sender","type":"address","indexed":true,"internalType":"address"}],"anonymous":false},{"type":"event","name":"UserOperationExecuted","inputs":[{"name":"opHash","type":"bytes32","indexed":true,"internalType":"bytes32"},{"name":"sender","type":"address","indexed":true,"internalType":"address"},{"name":"actualGasCost","type":"uint256","indexed":false,"internalType":"uint256"},{"name":"success","type":"bool","indexed":false,"internalType":"bool"}],"anonymous":false},{"type":"event","name":"WhitelistStatusUpdated","inputs":[{"name":"account","type":"address","indexed":true,"internalType":"address"},{"name":"isSender","type":"bool","indexed":false,"internalType":"bool"},{"name":"whitelisted","type":"bool","indexed":false,"internalType":"bool"}],"anonymous":false},{"type":"error","name":"AccessControlBadConfirmation","inputs":[]},{"type":"error","name":"AccessControlUnauthorizedAccount","inputs":[{"name":"account","type":"address","internalType":"address"},{"name":"neededRole","type":"bytes32","internalType":"bytes32"}]},{"type":"error","name":"BatchTooLarge","inputs":[{"name":"size","type":"uint256","internalType":"uint256"},{"name":"max","type":"uint256","internalType":"uint256"}]},{"type":"error","name":"BlacklistedAddress","inputs":[{"name":"account","type":"address","internalType":"address"}]},{"type":"error","name":"DeadlineTooLong","inputs":[{"name":"deadline","type":"uint256","internalType":"uint256"},{"name":"maximum","type":"uint256","internalType":"uint256"}]},{"type":"error","name":"DeadlineTooShort","inputs":[{"name":"deadline","type":"uint256","internalType":"uint256"},{"name":"minimum","type":"uint256","internalType":"uint256"}]},{"type":"error","name":"ECDSAInvalidSignature","inputs":[]},{"type":"error","name":"ECDSAInvalidSignatureLength","inputs":[{"name":"length","type":"uint256","internalType":"uint256"}]},{"type":"error","name":"ECDSAInvalidSignatureS","inputs":[{"name":"s","type":"bytes32","internalType":"bytes32"}]},{"type":"error","name":"FeeTooHigh","inputs":[{"name":"fee","type":"uint256","internalType":"uint256"},{"name":"max","type":"uint256","internalType":"uint256"}]},{"type":"error","name":"GasPriceTooHigh","inputs":[{"name":"gasPrice","type":"uint256","internalType":"uint256"},{"name":"max","type":"uint256","internalType":"uint256"}]},{"type":"error","name":"GasPriceTooLow","inputs":[{"name":"gasPrice","type":"uint256","internalType":"uint256"},{"name":"min","type":"uint256","internalType":"uint256"}]},{"type":"error","name":"HistoryLimitReached","inputs":[]},{"type":"error","name":"InsufficientFeePayment","inputs":[{"name":"required","type":"uint256","internalType":"uint256"},{"name":"provided","type":"uint256","internalType":"uint256"}]},{"type":"error","name":"InvalidFeeRecipient","inputs":[{"name":"recipient","type":"address","internalType":"address"}]},{"type":"error","name":"InvalidShortString","inputs":[]},{"type":"error","name":"InvalidSignature","inputs":[{"name":"signer","type":"address","internalType":"address"},{"name":"expected","type":"address","internalType":"address"}]},{"type":"error","name":"NonceAlreadyUsed","inputs":[{"name":"user","type":"address","internalType":"address"},{"name":"nonce","type":"uint256","internalType":"uint256"}]},{"type":"error","name":"NotWhitelisted","inputs":[{"name":"account","type":"address","internalType":"address"}]},{"type":"error","name":"ReentrancyGuardReentrantCall","inputs":[]},{"type":"error","name":"RelayPausedError","inputs":[]},{"type":"error","name":"StringTooLong","inputs":[{"name":"str","type":"string","internalType":"string"}]},{"type":"error","name":"TransactionAlreadyExecuted","inputs":[{"name":"txHash","type":"bytes32","internalType":"bytes32"}]},{"type":"error","name":"TransactionExpired","inputs":[{"name":"deadline","type":"uint256","internalType":"uint256"},{"name":"current","type":"uint256","internalType":"uint256"}]},{"type":"error","name":"TransactionFailed","inputs":[{"name":"txHash","type":"bytes32","internalType":"bytes32"},{"name":"revertData","type":"bytes","internalType":"bytes"}]},{"type":"error","name":"TransactionValueTooHigh","inputs":[{"name":"value","type":"uint256","internalType":"uint256"},{"name":"max","type":"uint256","internalType":"uint256"}]}],"bytecode":{"object":"0x61016080604052346102a6576040816133d5803803809161002082856102aa565b8339810103126102a65761003f6020610038836102cd565b92016102cd565b60405161004d6040826102aa565b600e815260208101906d23b0b9b632b9b9a932b630bcb2b960911b8252604051916100796040846102aa565b600183526020830191603160f81b835260017f9b779b17422d0df92223018b32b4d1fa46e071723d6817e2486d003becc55f00556100b681610510565b610120526100c3846106b7565b61014052519020918260e05251902080610100524660a0526040519060208201927f8b73c3c69bb8fe3d512ecc4cf759cc79239f7b179b0ffacaa9a75d522b39400f8452604083015260608201524660808201523060a082015260a0815261012c60c0826102aa565b5190206080523060c0526001600160a01b038216801561029457506001600160a01b0316908115610281578061016461017e926102e1565b5061016e81610357565b50610178816103ea565b5061047d565b50601280546001600160a01b03191691909117905560405160c081016001600160401b0381118282101761026d575f9160a09160405264746a5288008152633b9aca00602082015260646040820152683635c9adc5dea000006060820152826080820152015264746a528800600655633b9aca006007556064600855683635c9adc5dea0000060095560ff19600a5416600a5561ff0019600a5416600a55604051612b3990816107fc8239608051816125b8015260a05181612675015260c05181612582015260e051816126070152610100518161262d01526101205181610e4c01526101405181610e750152f35b634e487b7160e01b5f52604160045260245ffd5b50633e0288fb60e21b5f5260045260245ffd5b633e0288fb60e21b5f5260045260245ffd5b5f80fd5b601f909101601f19168101906001600160401b0382119082101761026d57604052565b51906001600160a01b03821682036102a657565b6001600160a01b0381165f9081525f5160206133b55f395f51905f52602052604090205460ff16610352576001600160a01b03165f8181525f5160206133b55f395f51905f5260205260408120805460ff191660011790553391905f5160206133355f395f51905f528180a4600190565b505f90565b6001600160a01b0381165f9081525f5160206133555f395f51905f52602052604090205460ff16610352576001600160a01b03165f8181525f5160206133555f395f51905f5260205260408120805460ff191660011790553391907feacae5eabf8927ed578fb3d6e92447e3bc946051e1b9995d0d922b1f4562ec31905f5160206133355f395f51905f529080a4600190565b6001600160a01b0381165f9081525f5160206133755f395f51905f52602052604090205460ff16610352576001600160a01b03165f8181525f5160206133755f395f51905f5260205260408120805460ff191660011790553391907f3a43d4210774a09c5d26191d1150219028070cec811f3e6f8ab498268dd6140c905f5160206133355f395f51905f529080a4600190565b6001600160a01b0381165f9081525f5160206133955f395f51905f52602052604090205460ff16610352576001600160a01b03165f8181525f5160206133955f395f51905f5260205260408120805460ff191660011790553391907f2a3dab589bcc9747970dd85ac3f222668741ae51f2a1bbb8f8355be28dd8a868905f5160206133355f395f51905f529080a4600190565b908151602081105f1461058a575090601f81511161054a57602081519101516020821061053b571790565b5f198260200360031b1b161790565b604460209160405192839163305a27a960e01b83528160048401528051918291826024860152018484015e5f828201840152601f01601f19168101030190fd5b6001600160401b03811161026d57600154600181811c911680156106ad575b602082101461069957601f811161065a575b50602092601f82116001146105f957928192935f926105ee575b50508160011b915f199060031b1c19161760015560ff90565b015190505f806105d5565b601f1982169360015f52805f20915f5b868110610642575083600195961061062a575b505050811b0160015560ff90565b01515f1960f88460031b161c191690555f808061061c565b91926020600181928685015181550194019201610609565b818111156105bb5760015f5260205f20601f80840160051c809201920160051c03905f5b82811061068c5750506105bb565b5f8282015560010161067e565b634e487b7160e01b5f52602260045260245ffd5b90607f16906105a9565b908151602081105f146106e2575090601f81511161054a57602081519101516020821061053b571790565b6001600160401b03811161026d57600254600181811c911680156107f1575b602082101461069957601f81116107b2575b50602092601f821160011461075157928192935f92610746575b50508160011b915f199060031b1c19161760025560ff90565b015190505f8061072d565b601f1982169360025f52805f20915f5b86811061079a5750836001959610610782575b505050811b0160025560ff90565b01515f1960f88460031b161c191690555f8080610774565b91926020600181928685015181550194019201610761565b818111156107135760025f5260205f20601f80840160051c809201920160051c03905f5b8281106107e4575050610713565b5f828201556001016107d6565b90607f169061070156fe608080604052600436101561001c575b50361561001a575f80fd5b005b5f3560e01c90816301ffc9a714611d1d57508063092967c8146118af57806313545a02146108ad578063153b0d1e14611829578063177a8322146117ef578063243e7a87146117b7578063248a9ca31461178d5780632e7700f0146117705780632f2ff15d1461173357806330e9b05b146112da57806336568abe1461129657806336baabba1461100b57806337adfa361461125c5780633af32abf1461121a57806346904840146111f2578063476343ee1461110857806360c6d8ae146110eb578063642f2eaf1461105f57806367d81740146110435780636a8a6894146109315780636ee9a3b81461100b5780636f0e530f14610fef5780637295ed9314610fb557806379502c5514610f645780637ecebe0014610f2c57806384b0196e14610e3457806385ae341d14610e18578063869152e714610d6b5780638691d34c14610d3c5780638898971a14610bae5780638ab1d68114610b4857806390193b7c14610ae057806391d1485414610a98578063a217fddf14610a7e578063b70e36f014610a1b578063c4876b0f146109e3578063c4ae31681461097a578063cab7e8eb14610931578063d547741f146108ef578063dbac26e9146108b2578063e1f1c4a7146108ad578063e3f0204b146107fa578063e43252d714610793578063ed24911d14610771578063f160d369146106db5763f28cba9a14610222575f61000f565b346106d75760403660031901126106d7576004356001600160401b0381116106d7578060040161016060031983360301126106d75761025f611dcf565b91610268612190565b6102706122f5565b60ff600a5460081c166106c8576001600160a01b0361028e83611fc9565b165f52600f60205260ff60405f20541661069f576024810135916001600160a01b036102b982611fc9565b165f52601560205260405f20548303610678576001600160a01b036102dd82611fc9565b165f52601560205260405f206102f38154611f5d565b90556040516020808201908152936001600160a01b0361031284611de5565b166040830152606082015261034061032d6044850184611ebb565b61016060808501526101a0840191611eec565b9361036560648501956103538786611ebb565b858303603f190160a087015290611eec565b91608485013560c082015260a485013560e08201526103fa816103ec60c488013597886101008401526103d96101446103d160e4840135998a6101208801526101048501356101408801526103be61012486018d611ebb565b888303603f19016101608a015290611eec565b920189611ebb565b848303603f190161018086015290611eec565b03601f198101835282611f3c565b51902092835f52600460205260ff60405f20541661066557835f52600460205260405f2060ff1981541660011790555a9461043484611fc9565b9061043f9085611fdd565b919082604051938492833781015f8152035a925f8094938194f19461046261206f565b505a61046d9161209e565b9061047791611f6b565b9061048290826120ab565b80955a5f809381938293f161049561206f565b5015610629576104a482611fc9565b936104ae83611fc9565b90612710601454101561061a57604051916104c883611f0c565b8583526001600160a01b03968716602080850182815292891660408087019182525f6060880181815260808901998a5260a089018e81524260c08b0190815298151560e08b018181528e8552601390975293909220985189559551600189018054918e166001600160a01b0319928316179055925160028901805491909d16931692909217909a559251600386015594516004850155905160058401559051600683015591516007909101805460ff191691151560ff1691909117905561058e8361232d565b5f52601060205260405f20848154906105a691611f6b565b905583601154906105b691611f6b565b6011556001600160a01b03906105cb90611fc9565b169160405190848252602082015260407fb62ff325ded437d0d50ad0e7e5be2e1b5744479536566e32dbb2fbed89a9f4a491a360015f516020612ae45f395f51905f5255604051908152602090f35b6322f807e760e01b5f5260045ffd5b608483604051906349413c5f60e01b8252600482015260406024820152600d60448201526c1499599d5b990819985a5b1959609a1b6064820152fd5b836331744cb760e01b5f5260045260245ffd5b6106829150611fc9565b633a42b7b560e21b5f5260018060a01b031660045260245260445ffd5b6106a882611fc9565b63d33f19e760e01b5f9081526001600160a01b0391909116600452602490fd5b63090798dd60e01b5f5260045ffd5b5f80fd5b346106d75760203660031901126106d7576106f4611db9565b6106fc6121ff565b6001600160a01b0316801561075f5760407faaebcf1bfa00580e41d966056b48521fa9f202645c86d4ddf28113e617c1b1d39160125490806bffffffffffffffffffffffff60a01b83161760125582519160018060a01b031682526020820152a1005b633e0288fb60e21b5f5260045260245ffd5b346106d7575f3660031901126106d757602061078b61257f565b604051908152f35b346106d75760203660031901126106d7576107ac611db9565b6107b461224e565b6001600160a01b03166107c681612a01565b507f124a6c5290ccc5c6d5b7082dc1d4158008d2f2d06ca13556c068063b4c3357c4604080516001815260016020820152a2005b346106d75760a03660031901126106d757604435600435606435602435608435801515908190036106d75761082d6121ff565b6101f4851161089457938392917f422389c44636a7ea4850335cbbe17fb9b805914a6f7c3bf1752e3b0e0f3d3bae9560809560065581600755826008558360095560ff8019600a5416911617600a55604051938452602084015260408301526060820152a1005b846373ab893560e11b5f526004526101f460245260445ffd5b611d9d565b346106d75760203660031901126106d7576001600160a01b036108d3611db9565b165f52600f602052602060ff60405f2054166040519015158152f35b346106d75760403660031901126106d75761001a60043561090e611dcf565b9061092c610927825f525f602052600160405f20015490565b6122bd565b6124ff565b346106d75760403660031901126106d7576001600160a01b03610952611db9565b165f52600560205260405f206024355f52602052602060ff60405f2054166040519015158152f35b346106d7575f3660031901126106d7576109926121ff565b7fa1829616332225d4fdf9dd55add308db4dca2cb5e5a9fea984c132850862d85b6020600a5461ff0060ff8260081c161560081b169061ff0019161780600a5560ff6040519160081c1615158152a1005b346106d75760203660031901126106d7576001600160a01b03610a04611db9565b165f526015602052602060405f2054604051908152f35b346106d75760203660031901126106d757600435335f52600560205260405f20815f5260205260405f20600160ff198254161790556040519081527f1800cd2301fbc20790ed94f3d55a28ef2306a9c31cd3c72b5b71b6e4cf5c624160203392a2005b346106d7575f3660031901126106d75760206040515f8152f35b346106d75760403660031901126106d757610ab1611dcf565b6004355f525f60205260405f209060018060a01b03165f52602052602060ff60405f2054166040519015158152f35b346106d75760203660031901126106d7576001600160a01b03610b01611db9565b16805f52600360205260405f20545b815f52600560205260405f20815f5260205260ff60405f20541615610b3d57610b3890611f5d565b610b10565b602090604051908152f35b346106d75760203660031901126106d757610b61611db9565b610b6961224e565b6001600160a01b0316610b7b81612942565b507f124a6c5290ccc5c6d5b7082dc1d4158008d2f2d06ca13556c068063b4c3357c460408051600181525f6020820152a2005b346106d75760403660031901126106d75760043560145480821015610ce557610bd960243583611f6b565b90808211610cdd575b50610bed828261209e565b91610bf7836120be565b92610c056040519485611f3c565b808452610c14601f19916120be565b015f5b818110610cc6575050805b828110610c7a57836040518091602082016020835281518091526020604084019201905f5b818110610c55575050500390f35b91935091602061010082610c6c6001948851611e5e565b019401910191849392610c47565b80610c86600192611df9565b90549060031b1c5f526013602052610cbf60405f20610cae610ca8868561209e565b91612111565b610cb8828961217c565b528661217c565b5001610c22565b602090610cd16120d5565b82828801015201610c17565b905082610be2565b60405162461bcd60e51b815260206004820152602960248201527f4761736c65737352656c617965723a20737461727420696e646578206f7574206044820152686f6620626f756e647360b81b6064820152608490fd5b346106d75760203660031901126106d7576004355f526004602052602060ff60405f2054166040519015158152f35b346106d75760203660031901126106d757600435610d876120d5565b50601454811015610dc757610d9b90611df9565b90549060031b1c5f526013602052610100610db860405f20612111565b610dc56040518092611e5e565bf35b60405162461bcd60e51b815260206004820152602360248201527f4761736c65737352656c617965723a20696e646578206f7574206f6620626f756044820152626e647360e81b6064820152608490fd5b346106d7575f3660031901126106d757602060405161012c8152f35b346106d7575f3660031901126106d757610ed0610e707f0000000000000000000000000000000000000000000000000000000000000000612749565b610e997f0000000000000000000000000000000000000000000000000000000000000000612872565b6020610ede60405192610eac8385611f3c565b5f84525f368137604051958695600f60f81b875260e08588015260e0870190611e3a565b908582036040870152611e3a565b4660608501523060808501525f60a085015283810360c08501528180845192838152019301915f5b828110610f1557505050500390f35b835185528695509381019392810192600101610f06565b346106d75760203660031901126106d7576001600160a01b03610f4d611db9565b165f526003602052602060405f2054604051908152f35b346106d7575f3660031901126106d75760c060065460ff60075460085460095490600a54926040519586526020860152604085015260608401528181161515608084015260081c16151560a0820152f35b346106d7575f3660031901126106d75760206040517f2a3dab589bcc9747970dd85ac3f222668741ae51f2a1bbb8f8355be28dd8a8688152f35b346106d7575f3660031901126106d7576020604051610e108152f35b346106d75760203660031901126106d7576001600160a01b0361102c611db9565b165f526010602052602060405f2054604051908152f35b346106d7575f3660031901126106d75760206040516101f48152f35b346106d75760203660031901126106d7576004355f52601360205261010060405f2080549060018060a01b036001820154169060018060a01b03600282015416600382015460048301549060058401549260ff600760068701549601541695604051978852602088015260408701526060860152608085015260a084015260c0830152151560e0820152f35b346106d7575f3660031901126106d7576020601154604051908152f35b346106d7575f3660031901126106d7576111206121ff565b6111286122f5565b4780156111da575f8080808460018060a01b03601254165af161114961206f565b501561119b576012546040519182526001600160a01b0316907fc0819c13be868895eb93e40eaceb96de976442fa1d404e5c55f14bb65a8c489a90602090a260015f516020612ae45f395f51905f5255005b60846040516349413c5f60e01b81525f600482015260406024820152601160448201527015da5d1a191c985dd85b0819985a5b1959607a1b6064820152fd5b632d66315160e01b5f5260016004525f60245260445ffd5b346106d7575f3660031901126106d7576012546040516001600160a01b039091168152602090f35b346106d75760203660031901126106d75760206112526001600160a01b03611240611db9565b165f52600c60205260405f2054151590565b6040519015158152f35b346106d7575f3660031901126106d75760206040517f3a43d4210774a09c5d26191d1150219028070cec811f3e6f8ab498268dd6140c8152f35b346106d75760403660031901126106d7576112af611dcf565b336001600160a01b038216036112cb5761001a906004356124ff565b63334bd91960e11b5f5260045ffd5b346106d75760e03660031901126106d7576112f3611db9565b6112fb611dcf565b90604435906064356001600160401b0381116106d75761131f903690600401611d70565b92906084359260a4359460c4356001600160401b0381116106d757611348903690600401611d70565b9096611352612190565b61135a6122f5565b600a549660ff8860081c166106c8576001600160a01b0385165f818152600f602052604090205490989060ff168015611712575b6116d25760ff16806116b6575b6116a35781421161168c5761012c4201804211611662578083106116765750610e1042018042116116625780831161164c5750600654803a116116365750600754803a10611620575060095480881161160a5750875f52600560205260405f20815f5260205260ff60405f2054166115f4579161149d85886114688d6103ec6114a3976114ac998f8e611450915f52600560205260405f20835f5260205260405f20600160ff198254161790558d3691611f93565b6020815191012060405196879560208701998a61200f565b519020996114958b61147861257f565b6042916040519161190160f01b8352600283015260228201522090565b923691611f93565b9061269b565b909291926126d5565b6001600160a01b03168581036115dd5750855f52600460205260ff60405f2054166115ca5761151d9287925f80611541948a8252600460205260408220600160ff198254161790555a948160405192839283378101838152039089885af194859261151561206f565b505a9061209e565b8661271061153761152e3a856120ab565b600854906120ab565b049586938b61236b565b60405192835260208301521591837f4db4ee5a0ba91b70622127d0d86a288fc28c648acda5d90a5e08e1bfb542091b606085159788604087015260018060a01b031694a46115a55760208260015f516020612ae45f395f51905f5255604051908152f35b606490604051906349413c5f60e01b82526004820152604060248201525f6044820152fd5b856331744cb760e01b5f5260045260245ffd5b85906310b5d43760e21b5f5260045260245260445ffd5b87633a42b7b560e21b5f5260045260245260445ffd5b8763449a794160e01b5f5260045260245260445ffd5b63185aeedb60e11b5f523a60045260245260445ffd5b639411833360e01b5f523a60045260245260445ffd5b826307387ac560e21b5f5260045260245260445ffd5b634e487b7160e01b5f52601160045260245ffd5b826374e1cf7760e01b5f5260045260245260445ffd5b5063300249d760e01b5f526004524260245260445ffd5b87636f8bf18b60e11b5f5260045260245ffd5b506116cc885f52600c60205260405f2054151590565b1561139b565b858b8a5f52600f60205260ff60405f2054165f1461170b575063d33f19e760e01b5f9081526001600160a01b0391909116600452602490fd5b90506106a8565b506001600160a01b038b165f908152600f602052604090205460ff1661138e565b346106d75760403660031901126106d75761001a600435611752611dcf565b9061176b610927825f525f602052600160405f20015490565b612477565b346106d7575f3660031901126106d7576020601454604051908152f35b346106d75760203660031901126106d757602061078b6004355f525f602052600160405f20015490565b346106d75760203660031901126106d7576004356014548110156106d7576117e0602091611df9565b90549060031b1c604051908152f35b346106d7575f3660031901126106d75760206040517feacae5eabf8927ed578fb3d6e92447e3bc946051e1b9995d0d922b1f4562ec318152f35b346106d75760403660031901126106d757611842611db9565b60243590811515908183036106d7577f92d364d140f902817e5eaa71cedfe20bae2a3c66a2725cee3d9a51d73f052fb6916118a66020926118816121ff565b60018060a01b031694855f52600f845260405f209060ff801983541691151516179055565b604051908152a2005b346106d75760403660031901126106d7576004356001600160401b0381116106d757366023820112156106d75780600401356001600160401b0381116106d7578060051b9036602483850101116106d7576024356001600160401b0381116106d75761191f903690600401611d70565b91909261192a612190565b6119326122f5565b5f9260ff600a5460081c166106c857600a8311611d05576040516020810190846040820160208452526060808201948201018160248a01915f9660e2198c360301975b898110611c65575050611991925003601f198101835282611f3c565b51902090335f52600360205260405f20908154916119ae83611f5d565b9055610e10420180421161166257611a22936114a39361149d926040519160208301937fcda896fc288d241e3983844f8397c8ad77de42822b70ea3157981be38f02186e855260408401526060830152608082015260808152611a1260a082611f3c565b519020976114958961147861257f565b6001600160a01b03168015611c4f57505f915f5b81811015611c005760248160051b88010135838112156106d75787016024810194906001600160a01b03611a6987611fc9565b165f52600560205260405f209060a481013591825f5260205260ff60405f205416611bf457869291906001600160a01b03611aa385611fc9565b165f52600560205260405f20825f5260205260405f20600160ff19825416179055611acd84611fc9565b906044810192611b1f611adf85611fc9565b6103ec6064850135958694611b02611afb60848901809d611fdd565b3691611f93565b6020815191012060405196879560c4602088019a0135948a61200f565b519020805f52600460205260ff60405f205416611be65791611bc3939183611b8f96945f52600460205260405f20600160ff198254161790555f808c84611b705a99611b6a89611fc9565b93611fdd565b9190826040519384928337810185815203925af196879561151561206f565b92611bbd611bb7611bb1612710611ba961152e3a8a6120ab565b048098611f6b565b9d611fc9565b91611fc9565b9161236b565b611bd2575b6001905b01611a36565b93611bde600191611f5d565b949050611bc8565b505050945050600190611bcc565b50509350600190611bcc565b602085838887604051928352848301527f96c9076dd75a0d63a9c7875627c7ce44c233ebaf104b807f2be5079a22ec397d60403393a360015f516020612ae45f395f51905f5255604051908152f35b6310b5d43760e21b5f526004525f60245260445ffd5b858303605f1901825290925090833590888212156106d75760019160209182918f019060a060c4611ce5611cd4602486016001600160a01b03611ca782611de5565b1686528980861b03611cbb60448901611de5565b1688870152606487013560408701526084870190611ebb565b60c0606087015260c0860191611eec565b9360a4810135608085015201359101529501930191019084929391611975565b8263bb1cb70b60e01b5f52600452600a60245260445ffd5b346106d75760203660031901126106d7576004359063ffffffff60e01b82168092036106d757602091637965db0b60e01b8114908115611d5f575b5015158152f35b6301ffc9a760e01b14905083611d58565b9181601f840112156106d7578235916001600160401b0383116106d757602083818601950101116106d757565b346106d7575f3660031901126106d75760206040516127108152f35b600435906001600160a01b03821682036106d757565b602435906001600160a01b03821682036106d757565b35906001600160a01b03821682036106d757565b601454811015611e115760145f5260205f2001905f90565b634e487b7160e01b5f52603260045260245ffd5b8054821015611e11575f5260205f2001905f90565b805180835260209291819084018484015e5f828201840152601f01601f1916010190565b60e080918051845260018060a01b03602082015116602085015260018060a01b036040820151166040850152606081015160608501526080810151608085015260a081015160a085015260c081015160c085015201511515910152565b9035601e19823603018112156106d75701602081359101916001600160401b0382116106d75781360383136106d757565b908060209392818452848401375f828201840152601f01601f1916010190565b61010081019081106001600160401b03821117611f2857604052565b634e487b7160e01b5f52604160045260245ffd5b90601f801991011681019081106001600160401b03821117611f2857604052565b5f1981146116625760010190565b9190820180921161166257565b6001600160401b038111611f2857601f01601f191660200190565b929192611f9f82611f78565b91611fad6040519384611f3c565b8294818452818301116106d7578281602093845f960137010152565b356001600160a01b03811681036106d75790565b903590601e19813603018212156106d757018035906001600160401b0382116106d7576020019181360383136106d757565b7f5fd13291509f17086d2ba1f9103f57ac2690f1273d0270f42ae34baa7a80b4fa81526001600160a01b039182166020820152911660408201526060810191909152608081019190915260a081019190915260c081019190915260e00190565b3d15612099573d9061208082611f78565b9161208e6040519384611f3c565b82523d5f602084013e565b606090565b9190820391821161166257565b8181029291811591840414171561166257565b6001600160401b038111611f285760051b60200190565b604051906120e282611f0c565b5f60e0838281528260208201528260408201528260608201528260808201528260a08201528260c08201520152565b9060405161211e81611f0c565b8254815260018301546001600160a01b03908116602083015260028401541660408201526003830154606082015260048301546080820152600583015460a0820152600683015460c082015260079092015460ff16151560e0830152565b8051821015611e115760209160051b010190565b335f9081527fbdeb72b935c69b375cc823c9357aac382c869cac100d4b813a2b95063e61b09e602052604090205460ff16156121c857565b63e2517d3f60e01b5f52336004527feacae5eabf8927ed578fb3d6e92447e3bc946051e1b9995d0d922b1f4562ec3160245260445ffd5b335f9081527fad3228b676f7d3cd4284a5443f17f1962b36e491b30a40b2405849e597ba5fb5602052604090205460ff161561223757565b63e2517d3f60e01b5f52336004525f60245260445ffd5b335f9081527fb5ba3787543ad6c173598159348a4a928021a98f804854cb89ce97f5d3e2c45e602052604090205460ff161561228657565b63e2517d3f60e01b5f52336004527f2a3dab589bcc9747970dd85ac3f222668741ae51f2a1bbb8f8355be28dd8a86860245260445ffd5b5f8181526020818152604080832033845290915290205460ff16156122df5750565b63e2517d3f60e01b5f523360045260245260445ffd5b60025f516020612ae45f395f51905f52541461231e5760025f516020612ae45f395f51905f5255565b633ee5aeb560e01b5f5260045ffd5b601454600160401b811015611f285761235181600161236793016014556014611e25565b819391549060031b91821b915f19901b19161790565b9055565b91959293612710601454101561061a5760076124529461244d93612472996040519461239686611f0c565b8786526001600160a01b0392831660208088018281529385166040808a0191825260608a019d8e5260808a0194855260a08a018f81524260c08c0190815298151560e08c019081525f8e815260139095529190932099518a55945160018a0180549188166001600160a01b0319928316179055905160028a01805491909716911617909455995160038701555160048601559051600585015590516006840155519101805460ff191691151560ff16919091179055565b61232d565b5f52601060205260405f20612468828254611f6b565b9055601154611f6b565b601155565b5f818152602081815260408083206001600160a01b038616845290915290205460ff166124f9575f818152602081815260408083206001600160a01b0395909516808452949091528120805460ff19166001179055339291907f2f8788117e7eff1d82e926ec794901d17c78024a50270940304540a733656f0d9080a4600190565b50505f90565b5f818152602081815260408083206001600160a01b038616845290915290205460ff16156124f9575f818152602081815260408083206001600160a01b0395909516808452949091528120805460ff19169055339291907ff6391f5c32d9c69d2a47ea670b442974b53935d1edc7fd64eb21e047a839171b9080a4600190565b307f00000000000000000000000000000000000000000000000000000000000000006001600160a01b03161480612672575b156125da577f000000000000000000000000000000000000000000000000000000000000000090565b60405160208101907f8b73c3c69bb8fe3d512ecc4cf759cc79239f7b179b0ffacaa9a75d522b39400f82527f000000000000000000000000000000000000000000000000000000000000000060408201527f000000000000000000000000000000000000000000000000000000000000000060608201524660808201523060a082015260a0815261266c60c082611f3c565b51902090565b507f000000000000000000000000000000000000000000000000000000000000000046146125b1565b81519190604183036126cb576126c49250602082015190606060408401519301515f1a90612a56565b9192909190565b50505f9160029190565b600481101561273557806126e7575050565b600181036126fe5763f645eedf60e01b5f5260045ffd5b60028103612719575063fce698f760e01b5f5260045260245ffd5b6003146127235750565b6335e2f38360e21b5f5260045260245ffd5b634e487b7160e01b5f52602160045260245ffd5b60ff811461278f5760ff811690601f8211612780576040519161276d604084611f3c565b6020808452838101919036833783525290565b632cd44ac360e21b5f5260045ffd5b506040515f6001548060011c9160018216918215612868575b60208410831461285457838552849290811561283557506001146127d6575b6127d392500382611f3c565b90565b5060015f90815290917fb10e2d527612073b26eecdfd717e6a320cf44b4afac2b0732d9fcbe2b7fa0cf65b8183106128195750509060206127d3928201016127c7565b6020919350806001915483858801015201910190918392612801565b602092506127d394915060ff191682840152151560051b8201016127c7565b634e487b7160e01b5f52602260045260245ffd5b92607f16926127a8565b60ff81146128965760ff811690601f8211612780576040519161276d604084611f3c565b506040515f6002548060011c9160018216918215612938575b60208410831461285457838552849290811561283557506001146128d9576127d392500382611f3c565b5060025f90815290917f405787fa12a823e0f2b7631cc41b3ba8828b3321ca811111fa75cd3aa3bb5ace5b81831061291c5750509060206127d3928201016127c7565b6020919350806001915483858801015201910190918392612904565b92607f16926128af565b5f818152600c602052604090205480156124f9575f19810181811161166257600b545f19810191908211611662578181036129c9575b505050600b5480156129b5575f190161299281600b611e25565b8154905f199060031b1b19169055600b555f52600c6020525f6040812055600190565b634e487b7160e01b5f52603160045260245ffd5b6129eb6129da61235193600b611e25565b90549060031b1c928392600b611e25565b90555f52600c60205260405f20555f8080612978565b805f52600c60205260405f2054155f14612a5157600b54600160401b811015611f2857612a3a612351826001859401600b55600b611e25565b9055600b54905f52600c60205260405f2055600190565b505f90565b91907f7fffffffffffffffffffffffffffffff5d576e7357a4501ddfe92f46681b20a08411612ad8579160209360809260ff5f9560405194855216868401526040830152606082015282805260015afa15612acd575f516001600160a01b03811615612ac357905f905f90565b505f906001905f90565b6040513d5f823e3d90fd5b5050505f916003919056fe9b779b17422d0df92223018b32b4d1fa46e071723d6817e2486d003becc55f00a2646970667358221220fbf5c83c896235e9445d268f2a44f55118cf8bf614cba47998ff825a33e30bdb64736f6c634300082100332f8788117e7eff1d82e926ec794901d17c78024a50270940304540a733656f0dbdeb72b935c69b375cc823c9357aac382c869cac100d4b813a2b95063e61b09e2ddc2e9b8a6fa1706627232881574346c5fd95dd2b63307b9f3e8ebd116cbb48b5ba3787543ad6c173598159348a4a928021a98f804854cb89ce97f5d3e2c45ead3228b676f7d3cd4284a5443f17f1962b36e491b30a40b2405849e597ba5fb5","linkReferences":{}},"methodIdentifiers":{"BASIS_POINTS()":"e1f1c4a7","DEFAULT_ADMIN_ROLE()":"a217fddf","MAX_DEADLINE()":"6f0e530f","MAX_FEE_PERCENT()":"67d81740","MAX_HISTORY()":"13545a02","MIN_DEADLINE()":"85ae341d","PAYMASTER_ROLE()":"37adfa36","RELAYER_OPERATOR_ROLE()":"177a8322","WHITELIST_MANAGER_ROLE()":"7295ed93","addToWhitelist(address)":"e43252d7","blacklisted(address)":"dbac26e9","config()":"79502c55","eip712Domain()":"84b0196e","executeBatch((address,address,uint256,bytes,uint256,uint256)[],bytes)":"092967c8","executeMetaTransaction(address,address,uint256,bytes,uint256,uint256,bytes)":"30e9b05b","executeUserOperation((address,uint256,bytes,bytes,uint256,uint256,uint256,uint256,uint256,bytes,bytes),address)":"f28cba9a","executedTransactions(bytes32)":"8691d34c","feeRecipient()":"46904840","getDomainSeparator()":"ed24911d","getNextNonce(address)":"90193b7c","getRoleAdmin(bytes32)":"248a9ca3","getTransactionByIndex(uint256)":"869152e7","getTransactionCount()":"2e7700f0","getTransactions(uint256,uint256)":"8898971a","getUserFees(address)":"36baabba","grantRole(bytes32,address)":"2f2ff15d","hasRole(bytes32,address)":"91d14854","invalidateNonce(uint256)":"b70e36f0","isNonceUsed(address,uint256)":"cab7e8eb","isWhitelisted(address)":"3af32abf","nonces(address)":"7ecebe00","relayFeesCollected(address)":"6ee9a3b8","removeFromWhitelist(address)":"8ab1d681","renounceRole(bytes32,address)":"36568abe","revokeRole(bytes32,address)":"d547741f","setBlacklist(address,bool)":"153b0d1e","supportsInterface(bytes4)":"01ffc9a7","togglePause()":"c4ae3168","totalFeesCollected()":"60c6d8ae","transactionHistory(uint256)":"243e7a87","transactions(bytes32)":"642f2eaf","updateConfig(uint256,uint256,uint256,uint256,bool)":"e3f0204b","updateFeeRecipient(address)":"f160d369","usedNonces(address,uint256)":"6a8a6894","userOperationNonces(address)":"c4876b0f","withdrawFees()":"476343ee"},"id":3}