{"abi":[{"type":"constructor","inputs":[{"name":"_treasury","type":"address","internalType":"address"},{"name":"_aiController","type":"address","internalType":"address"}],"stateMutability":"nonpayable"},{"type":"function","name":"AI_CONTROLLER_ROLE","inputs":[],"outputs":[{"name":"","type":"bytes32","internalType":"bytes32"}],"stateMutability":"view"},{"type":"function","name":"AI_PROPOSAL_THRESHOLD","inputs":[],"outputs":[{"name":"","type":"uint256","internalType":"uint256"}],"stateMutability":"view"},{"type":"function","name":"AI_VOTING_PERIOD","inputs":[],"outputs":[{"name":"","type":"uint256","internalType":"uint256"}],"stateMutability":"view"},{"type":"function","name":"BURNER_ROLE","inputs":[],"outputs":[{"name":"","type":"bytes32","internalType":"bytes32"}],"stateMutability":"view"},{"type":"function","name":"DEFAULT_ADMIN_ROLE","inputs":[],"outputs":[{"name":"","type":"bytes32","internalType":"bytes32"}],"stateMutability":"view"},{"type":"function","name":"INITIAL_SUPPLY","inputs":[],"outputs":[{"name":"","type":"uint256","internalType":"uint256"}],"stateMutability":"view"},{"type":"function","name":"MAX_STAKE_DURATION","inputs":[],"outputs":[{"name":"","type":"uint256","internalType":"uint256"}],"stateMutability":"view"},{"type":"function","name":"MAX_SUPPLY","inputs":[],"outputs":[{"name":"","type":"uint256","internalType":"uint256"}],"stateMutability":"view"},{"type":"function","name":"MINTER_ROLE","inputs":[],"outputs":[{"name":"","type":"bytes32","internalType":"bytes32"}],"stateMutability":"view"},{"type":"function","name":"MIN_STAKE_DURATION","inputs":[],"outputs":[{"name":"","type":"uint256","internalType":"uint256"}],"stateMutability":"view"},{"type":"function","name":"PAUSER_ROLE","inputs":[],"outputs":[{"name":"","type":"bytes32","internalType":"bytes32"}],"stateMutability":"view"},{"type":"function","name":"TREASURY_ROLE","inputs":[],"outputs":[{"name":"","type":"bytes32","internalType":"bytes32"}],"stateMutability":"view"},{"type":"function","name":"aiProposalCount","inputs":[],"outputs":[{"name":"","type":"uint256","internalType":"uint256"}],"stateMutability":"view"},{"type":"function","name":"aiProposals","inputs":[{"name":"","type":"uint256","internalType":"uint256"}],"outputs":[{"name":"id","type":"uint256","internalType":"uint256"},{"name":"proposer","type":"address","internalType":"address"},{"name":"description","type":"string","internalType":"string"},{"name":"aiLogicExplanation","type":"string","internalType":"string"},{"name":"proposedAt","type":"uint256","internalType":"uint256"},{"name":"executed","type":"bool","internalType":"bool"},{"name":"forVotes","type":"uint256","internalType":"uint256"},{"name":"againstVotes","type":"uint256","internalType":"uint256"}],"stateMutability":"view"},{"type":"function","name":"allowance","inputs":[{"name":"owner","type":"address","internalType":"address"},{"name":"spender","type":"address","internalType":"address"}],"outputs":[{"name":"","type":"uint256","internalType":"uint256"}],"stateMutability":"view"},{"type":"function","name":"approve","inputs":[{"name":"spender","type":"address","internalType":"address"},{"name":"value","type":"uint256","internalType":"uint256"}],"outputs":[{"name":"","type":"bool","internalType":"bool"}],"stateMutability":"nonpayable"},{"type":"function","name":"balanceOf","inputs":[{"name":"account","type":"address","internalType":"address"}],"outputs":[{"name":"","type":"uint256","internalType":"uint256"}],"stateMutability":"view"},{"type":"function","name":"burn","inputs":[{"name":"value","type":"uint256","internalType":"uint256"}],"outputs":[],"stateMutability":"nonpayable"},{"type":"function","name":"burnFrom","inputs":[{"name":"from","type":"address","internalType":"address"},{"name":"amount","type":"uint256","internalType":"uint256"}],"outputs":[],"stateMutability":"nonpayable"},{"type":"function","name":"createAIProposal","inputs":[{"name":"description","type":"string","internalType":"string"},{"name":"aiLogicExplanation","type":"string","internalType":"string"}],"outputs":[{"name":"","type":"uint256","internalType":"uint256"}],"stateMutability":"nonpayable"},{"type":"function","name":"decimals","inputs":[],"outputs":[{"name":"","type":"uint8","internalType":"uint8"}],"stateMutability":"view"},{"type":"function","name":"delegate","inputs":[{"name":"delegatee","type":"address","internalType":"address"}],"outputs":[],"stateMutability":"nonpayable"},{"type":"function","name":"delegates","inputs":[{"name":"account","type":"address","internalType":"address"}],"outputs":[{"name":"","type":"address","internalType":"address"}],"stateMutability":"view"},{"type":"function","name":"emergencyPause","inputs":[],"outputs":[],"stateMutability":"nonpayable"},{"type":"function","name":"emergencyTokenRecovery","inputs":[{"name":"token","type":"address","internalType":"address"},{"name":"amount","type":"uint256","internalType":"uint256"}],"outputs":[],"stateMutability":"nonpayable"},{"type":"function","name":"executeAIProposal","inputs":[{"name":"proposalId","type":"uint256","internalType":"uint256"}],"outputs":[],"stateMutability":"nonpayable"},{"type":"function","name":"getAIProposal","inputs":[{"name":"proposalId","type":"uint256","internalType":"uint256"}],"outputs":[{"name":"id","type":"uint256","internalType":"uint256"},{"name":"proposer","type":"address","internalType":"address"},{"name":"description","type":"string","internalType":"string"},{"name":"aiLogicExplanation","type":"string","internalType":"string"},{"name":"proposedAt","type":"uint256","internalType":"uint256"},{"name":"executed","type":"bool","internalType":"bool"},{"name":"forVotes","type":"uint256","internalType":"uint256"},{"name":"againstVotes","type":"uint256","internalType":"uint256"}],"stateMutability":"view"},{"type":"function","name":"getPastVotes","inputs":[{"name":"account","type":"address","internalType":"address"},{"name":"blockNumber","type":"uint256","internalType":"uint256"}],"outputs":[{"name":"","type":"uint256","internalType":"uint256"}],"stateMutability":"view"},{"type":"function","name":"getRoleAdmin","inputs":[{"name":"role","type":"bytes32","internalType":"bytes32"}],"outputs":[{"name":"","type":"bytes32","internalType":"bytes32"}],"stateMutability":"view"},{"type":"function","name":"getVotes","inputs":[{"name":"account","type":"address","internalType":"address"}],"outputs":[{"name":"","type":"uint256","internalType":"uint256"}],"stateMutability":"view"},{"type":"function","name":"grantRole","inputs":[{"name":"role","type":"bytes32","internalType":"bytes32"},{"name":"account","type":"address","internalType":"address"}],"outputs":[],"stateMutability":"nonpayable"},{"type":"function","name":"hasRole","inputs":[{"name":"role","type":"bytes32","internalType":"bytes32"},{"name":"account","type":"address","internalType":"address"}],"outputs":[{"name":"","type":"bool","internalType":"bool"}],"stateMutability":"view"},{"type":"function","name":"mint","inputs":[{"name":"to","type":"address","internalType":"address"},{"name":"amount","type":"uint256","internalType":"uint256"}],"outputs":[],"stateMutability":"nonpayable"},{"type":"function","name":"name","inputs":[],"outputs":[{"name":"","type":"string","internalType":"string"}],"stateMutability":"view"},{"type":"function","name":"pause","inputs":[],"outputs":[],"stateMutability":"nonpayable"},{"type":"function","name":"paused","inputs":[],"outputs":[{"name":"","type":"bool","internalType":"bool"}],"stateMutability":"view"},{"type":"function","name":"renounceRole","inputs":[{"name":"role","type":"bytes32","internalType":"bytes32"},{"name":"callerConfirmation","type":"address","internalType":"address"}],"outputs":[],"stateMutability":"nonpayable"},{"type":"function","name":"revokeRole","inputs":[{"name":"role","type":"bytes32","internalType":"bytes32"},{"name":"account","type":"address","internalType":"address"}],"outputs":[],"stateMutability":"nonpayable"},{"type":"function","name":"stakeStartTime","inputs":[{"name":"","type":"address","internalType":"address"}],"outputs":[{"name":"","type":"uint256","internalType":"uint256"}],"stateMutability":"view"},{"type":"function","name":"stakedBalance","inputs":[{"name":"","type":"address","internalType":"address"}],"outputs":[{"name":"","type":"uint256","internalType":"uint256"}],"stateMutability":"view"},{"type":"function","name":"supportsInterface","inputs":[{"name":"interfaceId","type":"bytes4","internalType":"bytes4"}],"outputs":[{"name":"","type":"bool","internalType":"bool"}],"stateMutability":"view"},{"type":"function","name":"symbol","inputs":[],"outputs":[{"name":"","type":"string","internalType":"string"}],"stateMutability":"view"},{"type":"function","name":"totalSupply","inputs":[],"outputs":[{"name":"","type":"uint256","internalType":"uint256"}],"stateMutability":"view"},{"type":"function","name":"transfer","inputs":[{"name":"to","type":"address","internalType":"address"},{"name":"value","type":"uint256","internalType":"uint256"}],"outputs":[{"name":"","type":"bool","internalType":"bool"}],"stateMutability":"nonpayable"},{"type":"function","name":"transferFrom","inputs":[{"name":"from","type":"address","internalType":"address"},{"name":"to","type":"address","internalType":"address"},{"name":"value","type":"uint256","internalType":"uint256"}],"outputs":[{"name":"","type":"bool","internalType":"bool"}],"stateMutability":"nonpayable"},{"type":"function","name":"unpause","inputs":[],"outputs":[],"stateMutability":"nonpayable"},{"type":"function","name":"voteOnAIProposal","inputs":[{"name":"proposalId","type":"uint256","internalType":"uint256"},{"name":"support","type":"bool","internalType":"bool"}],"outputs":[],"stateMutability":"nonpayable"},{"type":"event","name":"AIProposalCreated","inputs":[{"name":"proposalId","type":"uint256","indexed":true,"internalType":"uint256"},{"name":"proposer","type":"address","indexed":true,"internalType":"address"},{"name":"description","type":"string","indexed":false,"internalType":"string"}],"anonymous":false},{"type":"event","name":"AIProposalExecuted","inputs":[{"name":"proposalId","type":"uint256","indexed":true,"internalType":"uint256"}],"anonymous":false},{"type":"event","name":"AIProposalVoted","inputs":[{"name":"proposalId","type":"uint256","indexed":true,"internalType":"uint256"},{"name":"voter","type":"address","indexed":true,"internalType":"address"},{"name":"support","type":"bool","indexed":false,"internalType":"bool"},{"name":"votes","type":"uint256","indexed":false,"internalType":"uint256"}],"anonymous":false},{"type":"event","name":"Approval","inputs":[{"name":"owner","type":"address","indexed":true,"internalType":"address"},{"name":"spender","type":"address","indexed":true,"internalType":"address"},{"name":"value","type":"uint256","indexed":false,"internalType":"uint256"}],"anonymous":false},{"type":"event","name":"DelegateChanged","inputs":[{"name":"delegator","type":"address","indexed":true,"internalType":"address"},{"name":"fromDelegate","type":"address","indexed":true,"internalType":"address"},{"name":"toDelegate","type":"address","indexed":true,"internalType":"address"}],"anonymous":false},{"type":"event","name":"DelegateVotesChanged","inputs":[{"name":"delegate","type":"address","indexed":true,"internalType":"address"},{"name":"previousBalance","type":"uint256","indexed":false,"internalType":"uint256"},{"name":"newBalance","type":"uint256","indexed":false,"internalType":"uint256"}],"anonymous":false},{"type":"event","name":"EmergencyAction","inputs":[{"name":"action","type":"string","indexed":false,"internalType":"string"},{"name":"timestamp","type":"uint256","indexed":false,"internalType":"uint256"}],"anonymous":false},{"type":"event","name":"Paused","inputs":[{"name":"account","type":"address","indexed":false,"internalType":"address"}],"anonymous":false},{"type":"event","name":"RoleAdminChanged","inputs":[{"name":"role","type":"bytes32","indexed":true,"internalType":"bytes32"},{"name":"previousAdminRole","type":"bytes32","indexed":true,"internalType":"bytes32"},{"name":"newAdminRole","type":"bytes32","indexed":true,"internalType":"bytes32"}],"anonymous":false},{"type":"event","name":"RoleGranted","inputs":[{"name":"role","type":"bytes32","indexed":true,"internalType":"bytes32"},{"name":"account","type":"address","indexed":true,"internalType":"address"},{"name":"sender","type":"address","indexed":true,"internalType":"address"}],"anonymous":false},{"type":"event","name":"RoleRevoked","inputs":[{"name":"role","type":"bytes32","indexed":true,"internalType":"bytes32"},{"name":"account","type":"address","indexed":true,"internalType":"address"},{"name":"sender","type":"address","indexed":true,"internalType":"address"}],"anonymous":false},{"type":"event","name":"TokensStaked","inputs":[{"name":"user","type":"address","indexed":true,"internalType":"address"},{"name":"amount","type":"uint256","indexed":false,"internalType":"uint256"},{"name":"duration","type":"uint256","indexed":false,"internalType":"uint256"}],"anonymous":false},{"type":"event","name":"TokensUnstaked","inputs":[{"name":"user","type":"address","indexed":true,"internalType":"address"},{"name":"amount","type":"uint256","indexed":false,"internalType":"uint256"},{"name":"reward","type":"uint256","indexed":false,"internalType":"uint256"}],"anonymous":false},{"type":"event","name":"Transfer","inputs":[{"name":"from","type":"address","indexed":true,"internalType":"address"},{"name":"to","type":"address","indexed":true,"internalType":"address"},{"name":"value","type":"uint256","indexed":false,"internalType":"uint256"}],"anonymous":false},{"type":"event","name":"Unpaused","inputs":[{"name":"account","type":"address","indexed":false,"internalType":"address"}],"anonymous":false},{"type":"error","name":"AccessControlBadConfirmation","inputs":[]},{"type":"error","name":"AccessControlUnauthorizedAccount","inputs":[{"name":"account","type":"address","internalType":"address"},{"name":"neededRole","type":"bytes32","internalType":"bytes32"}]},{"type":"error","name":"AlreadyVoted","inputs":[{"name":"proposalId","type":"uint256","internalType":"uint256"},{"name":"voter","type":"address","internalType":"address"}]},{"type":"error","name":"ERC20InsufficientAllowance","inputs":[{"name":"spender","type":"address","internalType":"address"},{"name":"allowance","type":"uint256","internalType":"uint256"},{"name":"needed","type":"uint256","internalType":"uint256"}]},{"type":"error","name":"ERC20InsufficientBalance","inputs":[{"name":"sender","type":"address","internalType":"address"},{"name":"balance","type":"uint256","internalType":"uint256"},{"name":"needed","type":"uint256","internalType":"uint256"}]},{"type":"error","name":"ERC20InvalidApprover","inputs":[{"name":"approver","type":"address","internalType":"address"}]},{"type":"error","name":"ERC20InvalidReceiver","inputs":[{"name":"receiver","type":"address","internalType":"address"}]},{"type":"error","name":"ERC20InvalidSender","inputs":[{"name":"sender","type":"address","internalType":"address"}]},{"type":"error","name":"ERC20InvalidSpender","inputs":[{"name":"spender","type":"address","internalType":"address"}]},{"type":"error","name":"EnforcedPause","inputs":[]},{"type":"error","name":"ExpectedPause","inputs":[]},{"type":"error","name":"InsufficientBalance","inputs":[{"name":"account","type":"address","internalType":"address"},{"name":"requested","type":"uint256","internalType":"uint256"},{"name":"available","type":"uint256","internalType":"uint256"}]},{"type":"error","name":"InvalidAddress","inputs":[{"name":"addr","type":"address","internalType":"address"}]},{"type":"error","name":"MaxSupplyExceeded","inputs":[{"name":"requested","type":"uint256","internalType":"uint256"},{"name":"max","type":"uint256","internalType":"uint256"}]},{"type":"error","name":"ProposalNotExecutable","inputs":[{"name":"proposalId","type":"uint256","internalType":"uint256"}]},{"type":"error","name":"ProposalNotFound","inputs":[{"name":"proposalId","type":"uint256","internalType":"uint256"}]},{"type":"error","name":"ProposalThresholdNotMet","inputs":[{"name":"proposer","type":"address","internalType":"address"},{"name":"balance","type":"uint256","internalType":"uint256"},{"name":"required","type":"uint256","internalType":"uint256"}]},{"type":"error","name":"ReentrancyGuardReentrantCall","inputs":[]},{"type":"error","name":"StakeLocked","inputs":[{"name":"account","type":"address","internalType":"address"},{"name":"unlockTime","type":"uint256","internalType":"uint256"}]},{"type":"error","name":"StakingPeriodInvalid","inputs":[{"name":"duration","type":"uint256","internalType":"uint256"},{"name":"min","type":"uint256","internalType":"uint256"},{"name":"max","type":"uint256","internalType":"uint256"}]},{"type":"error","name":"TransferWhilePaused","inputs":[{"name":"from","type":"address","internalType":"address"},{"name":"to","type":"address","internalType":"address"}]},{"type":"error","name":"VotingClosed","inputs":[{"name":"proposalId","type":"uint256","internalType":"uint256"},{"name":"endTime","type":"uint256","internalType":"uint256"}]},{"type":"error","name":"ZeroAmount","inputs":[]}],"bytecode":{"object":"0x6080604052346108e85761321e6040813803918261001c8161090b565b9384928339810103126108e85761003e602061003783610930565b9201610930565b610048604061090b565b91600c83526b233932b2b237b6aa37b5b2b760a11b602084015261006c604061090b565b60048152634652454560e01b602082015283519092906001600160401b03811161043e57600354600181811c911680156108de575b60208210146107e457601f8111610870575b50602094601f821160011461080d579481929394955f92610802575b50508160011b915f199060031b1c1916176003555b82516001600160401b03811161043e57600454600181811c911680156107f8575b60208210146107e457601f8111610776575b506020601f821160011461071357819293945f92610708575b50508160011b915f199060031b1c1916176004555b60017f9b779b17422d0df92223018b32b4d1fa46e071723d6817e2486d003becc55f00556001600160a01b0382169182156106f5576001600160a01b03821680156106e35750906101c08261019c6101c694610944565b506101a6816109ba565b506101b081610a4d565b506101ba81610ae0565b50610b73565b50610c06565b5060ff600554166106d4576002546a52b7d2dcc80cd2e4000000810180911161047a57600255805f525f60205260405f206a52b7d2dcc80cd2e40000008154019055805f7fddf252ad1be2c89b69c2b068fc378daa952ba7f163c4a11628f55a4df523b3ef60206040516a52b7d2dcc80cd2e40000008152a35f818152600760208181526040808420805485845291852054939092526001600160a01b0319811685179091556001600160a01b0316918390839082907f3134e8a2e6d97e929a7e54011ea5485d7d196dd5f0ba4d4ef95803e8e3fc257f9080a482821415806106cb575b6102be575b6040516124569081610ce88239f35b6001600160e01b03169080610502575b50816102db575b806102af565b815f52600860205260405f20600191815480935f905b8282106104ae5750508061048e57505f905b6001600160e01b039182169082160190811161047a5760018060e01b031663ffffffff83169283151580610452575b156103c8575061034e6103669261034885610cc2565b90610c99565b509063ffffffff82549181199060201b169116179055565b815f52600860205261037b8160405f20610c99565b50915f52600960205263ffffffff60405f2091165f5260205260405f20818103156102d5578154815463ffffffff90911663ffffffff199182168117835592541690911790555f806102d5565b916103d16108ec565b9263ffffffff43168452602084019283526801000000000000000081101561043e5761040291600182018155610c99565b91909161042b579151915160201b63ffffffff191663ffffffff92909216919091179055610366565b634e487b7160e01b5f525f60045260245ffd5b634e487b7160e01b5f52604160045260245ffd5b5063ffffffff61046a61046486610cc2565b85610c99565b50541663ffffffff431614610332565b634e487b7160e01b5f52601160045260245ffd5b5f19810190811161047a576104a39083610c99565b505460201c90610303565b90916104ba8184610cda565b821c906104c78287610c99565b5063ffffffff43915416115f146104e15750915b906102f1565b9250818101809111156104db57634e487b7160e01b5f52601160045260245ffd5b805f52600860205260405f20805490815f5b81811061067857508061065957505f5b6001600160e01b038581169181169190910390811161047a5760018060e01b031663ffffffff83169283151580610637575b156105d4575061034e61056c9261034885610cc2565b815f5260086020526105818160405f20610c99565b50915f52600960205263ffffffff60405f2091165f5260205260405f208181036105ac575b506102ce565b8154815463ffffffff90911663ffffffff199182168117835592541690911790555f806105a6565b916105dd6108ec565b9263ffffffff43168452602084019283526801000000000000000081101561043e5761060e91600182018155610c99565b91909161042b579151915160201b63ffffffff191663ffffffff9290921691909117905561056c565b5063ffffffff61064961046486610cc2565b50541663ffffffff431614610556565b5f19810190811161047a5761066e9082610c99565b505460201c610524565b906106838183610cda565b60011c906106918285610c99565b5063ffffffff43915416115f146106a9575090610514565b9150600181018091111561051457634e487b7160e01b5f52601160045260245ffd5b508015156102aa565b63d93c066560e01b5f5260045ffd5b634726455360e11b5f5260045260245ffd5b82634726455360e11b5f5260045260245ffd5b015190505f80610130565b601f1982169060045f52805f20915f5b81811061075e57509583600195969710610746575b505050811b01600455610145565b01515f1960f88460031b161c191690555f8080610738565b9192602060018192868b015181550194019201610723565b818111156101175760045f52601f820160051c7f8a35acfbc15ff81a39ae7d344fd709f28e8600b4aa8c65c6b64bfe7fe36bd19b602084106107dc575b81601f9101920160051c03905f5b8281106107cf575050610117565b5f828201556001016107c1565b5f91506107b3565b634e487b7160e01b5f52602260045260245ffd5b90607f1690610105565b015190505f806100cf565b601f1982169560035f52805f20915f5b88811061085857508360019596979810610840575b505050811b016003556100e4565b01515f1960f88460031b161c191690555f8080610832565b9192602060018192868501518155019401920161081d565b818111156100b35760035f52601f820160051c7fc2575a0e9e593c00f959f8c92f12db2869c3395a3b0502d05e2516446f71f85b602084106108d6575b81601f9101920160051c03905f5b8281106108c95750506100b3565b5f828201556001016108bb565b5f91506108ad565b90607f16906100a1565b5f80fd5b60408051919082016001600160401b0381118382101761043e57604052565b6040519190601f01601f191682016001600160401b0381118382101761043e57604052565b51906001600160a01b03821682036108e857565b6001600160a01b0381165f9081525f5160206131fe5f395f51905f52602052604090205460ff166109b5576001600160a01b03165f8181525f5160206131fe5f395f51905f5260205260408120805460ff191660011790553391905f51602061313e5f395f51905f528180a4600190565b505f90565b6001600160a01b0381165f9081525f5160206131de5f395f51905f52602052604090205460ff166109b5576001600160a01b03165f8181525f5160206131de5f395f51905f5260205260408120805460ff191660011790553391907fe1dcbdb91df27212a29bc27177c840cf2f819ecf2187432e1fac86c2dd5dfca9905f51602061313e5f395f51905f529080a4600190565b6001600160a01b0381165f9081525f51602061317e5f395f51905f52602052604090205460ff166109b5576001600160a01b03165f8181525f51602061317e5f395f51905f5260205260408120805460ff191660011790553391907f9f2df0fed2c77648de5860a4cc508cd0818c85b8b8a1ab4ceeef8d981c8956a6905f51602061313e5f395f51905f529080a4600190565b6001600160a01b0381165f9081525f51602061315e5f395f51905f52602052604090205460ff166109b5576001600160a01b03165f8181525f51602061315e5f395f51905f5260205260408120805460ff191660011790553391907f3c11d16cbaffd01df69ce1c404f6340ee057498f5f00246190ea54220576a848905f51602061313e5f395f51905f529080a4600190565b6001600160a01b0381165f9081525f51602061319e5f395f51905f52602052604090205460ff166109b5576001600160a01b03165f8181525f51602061319e5f395f51905f5260205260408120805460ff191660011790553391907f65d7a28e3265b37a6474929f336521b332c1681b933f6cb9f3376673440d862a905f51602061313e5f395f51905f529080a4600190565b6001600160a01b0381165f9081525f5160206131be5f395f51905f52602052604090205460ff166109b5576001600160a01b03165f8181525f5160206131be5f395f51905f5260205260408120805460ff191660011790553391907fb0f8576b4ab6d387749a5acd70a6324b30741718c2a117c20e001efd848a4dd4905f51602061313e5f395f51905f529080a4600190565b8054821015610cae575f5260205f2001905f90565b634e487b7160e01b5f52603260045260245ffd5b63ffffffff5f199116019063ffffffff821161047a57565b9190820180921161047a5756fe6080806040526004361015610012575f80fd5b5f3560e01c90816301ffc9a714611a62575080630442f29e14611a4557806306fdde03146119a0578063095ea7b31461191e57806318160ddd1461190157806323b872dd14611822578063248a9ca3146117f7578063282c51f3146117bd5780632f2ff15d1461177f5780632ff2e9dc1461175a578063313ce5671461173f57806332cb6b0c1461171957806336568abe146116d55780633a46b1a8146116435780633f4ba83a146115dd57806340c10f191461140557806342966c68146113e857806351858e2714611279578063587cde1e146112395780635c19a95c146111b15780635c975abb1461118f578063602172671461115757806366975a481461111d5780636985e6d8146110e557806370a08231146110ae57806379cc679014610ed05780638456cb5914610e125780639127a01e146109f757806391d14854146109ae578063941561d81461093a57806395d89b411461085c5780639ab24eb014610831578063a217fddf14610817578063a9059cbb146107e6578063aa902b4d146107c8578063afb73d62146103e5578063b49b0cb31461066a578063c967eaaa14610517578063d11a57ec146104dd578063d5391393146104a3578063d547741f1461045e578063d6b493c51461043a578063dd62ed3e146103ea578063e0c570ba146103e5578063e63ab1e9146103ab578063f43477561461031b5763fa84aed014610221575f80fd5b346103175760203660031901126103175760043561023d611e35565b805f52600c60205260405f206004810154801561030457600582019182549160ff83166102f15762093a8081018091116102dd574211156102ca576008600782015491015410156102b75760ff191660011790557f17bcd8ebe82e0d2f95a85f829989d2bd52d2573534c8a0964ec364fafb78b0fd5f80a2005b826326d56fc560e01b5f5260045260245ffd5b836326d56fc560e01b5f5260045260245ffd5b634e487b7160e01b5f52601160045260245ffd5b846326d56fc560e01b5f5260045260245ffd5b8263428d06a960e01b5f5260045260245ffd5b5f80fd5b3461031757602036600319011261031757600435805f52600c60205260405f206004810154918215610399575061039581549160018060a01b036001820154169360ff600583015416600783015491600884015493610388600361038160028401611ba9565b9201611ba9565b9060405198899889611c49565b0390f35b63428d06a960e01b5f5260045260245ffd5b34610317575f3660031901126103175760206040517f65d7a28e3265b37a6474929f336521b332c1681b933f6cb9f3376673440d862a8152f35b611ca1565b3461031757604036600319011261031757610403611ad9565b61040b611aef565b6001600160a01b039182165f908152600160209081526040808320949093168252928352819020549051908152f35b34610317575f36600319011261031757602060405169021e19e0c9bab24000008152f35b34610317576040366003190112610317576104a160043561047d611aef565b9061049c610497825f526006602052600160405f20015490565b611e84565b611f44565b005b34610317575f3660031901126103175760206040517f9f2df0fed2c77648de5860a4cc508cd0818c85b8b8a1ab4ceeef8d981c8956a68152f35b34610317575f3660031901126103175760206040517fe1dcbdb91df27212a29bc27177c840cf2f819ecf2187432e1fac86c2dd5dfca98152f35b3461031757604036600319011261031757600435602435908115159182810361031757815f52600c60205260405f20600481015480156106575762093a8081018091116102dd578042116106415750600681019160018060a01b0333165f528260205260ff60405f20541661062a5761058f33611cf4565b92831561060e57335f90815260209190915260409020805460ff19166001179055156105f9576007016105c3828254611cbe565b90555b60405192835260208301527fd91ad5e64e9929080c124444b417f5772f643346b772bb68183efede36128cd660403393a3005b600801610607828254611cbe565b90556105c6565b63db42144d60e01b5f523360045260016024525f60445260645ffd5b836304f9da6360e01b5f526004523360245260445ffd5b8363aff2877760e01b5f5260045260245260445ffd5b8363428d06a960e01b5f5260045260245ffd5b3461031757604036600319011261031757610683611ad9565b61068b611e35565b61069361205f565b6001600160a01b03163081146107795760205f9160446040518094819363a9059cbb60e01b835233600484015260243560248401525af1801561076e57610737575b7f88313a379cb5333a1379fba0719d9d3a734fe6625681e0651edf4c8c105b5178608060405160408152600e60408201526d746f6b656e5f7265636f7665727960901b6060820152426020820152a160015f5160206124015f395f51905f5255005b6020813d602011610766575b8161075060209383611b87565b81010312610317575180151581146106d5575f80fd5b3d9150610743565b6040513d5f823e3d90fd5b60405162461bcd60e51b815260206004820152602160248201527f46726565646f6d546f6b656e3a2063616e6e6f74207265636f766572204652456044820152604560f81b6064820152608490fd5b34610317575f3660031901126103175760206040516301e133808152f35b346103175760403660031901126103175761080c610802611ad9565b6024359033611d40565b602060405160018152f35b34610317575f3660031901126103175760206040515f8152f35b3461031757602036600319011261031757602061085461084f611ad9565b611cf4565b604051908152f35b34610317575f366003190112610317576040515f60045461087c81611b33565b808452906001811690811561091657506001146108b8575b610395836108a481850382611b87565b604051918291602083526020830190611ab5565b60045f9081527f8a35acfbc15ff81a39ae7d344fd709f28e8600b4aa8c65c6b64bfe7fe36bd19b939250905b8082106108fc575090915081016020016108a4610894565b9192600181602092548385880101520191019092916108e4565b60ff191660208086019190915291151560051b840190910191506108a49050610894565b34610317576020366003190112610317576004355f908152600c60205260409020805460018201546001600160a01b0316916103959061097c60028201611ba9565b9061098960038201611ba9565b600482015460ff60058401541691600860078501549401549460405198899889611c49565b34610317576040366003190112610317576109c7611aef565b6004355f52600660205260405f209060018060a01b03165f52602052602060ff60405f2054166040519015158152f35b346103175760403660031901126103175760043567ffffffffffffffff811161031757610a28903690600401611b05565b60243567ffffffffffffffff811161031757610a48903690600401611b05565b335f9081527f6b421dd1b82a30a3bd47429070c18d0c2e0bdee780f24e0d080b79732c647a076020526040902054919390929160ff1615610ddb57335f525f60205269021e19e0c9bab240000060405f205410610dab57600d54925f1984146102dd576001848101600d555f858152600c6020526040902085815590810180546001600160a01b03191633179055906002820167ffffffffffffffff8511610cd757610af48154611b33565b601f8111610d5a575b50845f601f8211600114610cf6575f91610ceb575b508560011b905f198760031b1c19161790555b600382019067ffffffffffffffff8111610cd757610b438254611b33565b601f8111610c86575b5090859392916020975f90601f8311600114610bf5579180600594927fa8756ca027d3a1922e2a323f6c801fe12b57c8c88c6b763fdee6433cdbfc24a19796945f92610bea575b50508160011b915f199060031b1c19161790555b4260048201550160ff1981541690558360405191878352818884015260408301375f604085830101526040813395601f80199101168101030190a3604051908152f35b013590508b80610b93565b5f8481528a812097969594939290601f198416905b818110610c6c575097600192849260059796957fa8756ca027d3a1922e2a323f6c801fe12b57c8c88c6b763fdee6433cdbfc24a19a9b10610c53575b505050811b019055610ba7565b01355f19600384901b60f8161c191690558b8080610c46565b828401358a556001909901988b9850918c01918c01610c0a565b81811115610b4c5796825f5260205f20601f830160051c9060208410610ccf575b810198601f0160051c035f5b818110610cc257505096610b4c565b5f8a820155600101610cb3565b5f9150610ca7565b634e487b7160e01b5f52604160045260245ffd5b905084013588610b12565b5f8381526020812092508790601f198216905b818110610d3f575010610d26575b5050600185811b019055610b25565b8501355f19600388901b60f8161c191690558780610d17565b8884013585556001909401936020938401938a935001610d09565b85811115610afd57815f5260205f20601f870160051c9060208810610da3575b81601f9101920160051c03905f5b828110610d96575050610afd565b5f82820155600101610d88565b5f9150610d7a565b335f525f60205260405f2054630bfb402b60e11b5f523360045260245269021e19e0c9bab240000060445260645ffd5b63e2517d3f60e01b5f52336004527fb0f8576b4ab6d387749a5acd70a6324b30741718c2a117c20e001efd848a4dd460245260445ffd5b34610317575f36600319011261031757335f9081527fe09f975e15f8f53f24cbbc282b13c40b84df485fcdb8d3997fa103dc5a4ef841602052604090205460ff1615610e9957610e606123e5565b600160ff1960055416176005557f62e78cea01bee320cd4e420270b5ea74000d11b0c9f74754ebdbfc544b05a2586020604051338152a1005b63e2517d3f60e01b5f52336004527f65d7a28e3265b37a6474929f336521b332c1681b933f6cb9f3376673440d862a60245260445ffd5b3461031757604036600319011261031757610ee9611ad9565b335f9081527f42d20fd6db25ea5a8e33f43724ad72f2ebd9488257fa78c86176b8175fc383fa6020526040902054602435919060ff161561107757610f2c61205f565b6001600160a01b03811690811561106457821561105557815f525f6020528260405f20541061102e5782610f5f916121cc565b5f908152600760205260409020546001600160a01b0316908115158080611026575b610f99575b60015f5160206124015f395f51905f5255005b610fa4575b80610f86565b5f828152600860205260409020610fc4916001600160e01b031690612270565b815f526008602052610fd98160405f20611ccb565b50915f52600960205263ffffffff60405f2091165f5260205260405f2081810315610f9e578154815463ffffffff90911663ffffffff199182168117835592541690911790558080610f9e565b506001610f81565b5090815f525f60205260405f20549163db42144d60e01b5f5260045260245260445260645ffd5b631f2a200560e01b5f5260045ffd5b50634726455360e11b5f5260045260245ffd5b63e2517d3f60e01b5f52336004527f3c11d16cbaffd01df69ce1c404f6340ee057498f5f00246190ea54220576a84860245260445ffd5b34610317576020366003190112610317576001600160a01b036110cf611ad9565b165f525f602052602060405f2054604051908152f35b34610317576020366003190112610317576001600160a01b03611106611ad9565b165f52600b602052602060405f2054604051908152f35b34610317575f3660031901126103175760206040517fb0f8576b4ab6d387749a5acd70a6324b30741718c2a117c20e001efd848a4dd48152f35b34610317576020366003190112610317576001600160a01b03611178611ad9565b165f52600a602052602060405f2054604051908152f35b34610317575f36600319011261031757602060ff600554166040519015158152f35b34610317576020366003190112610317576104a16111cd611ad9565b335f818152600760208181526040808420805485845291852054939092526001600160a01b031981166001600160a01b038781169182179093559295949116928391907f3134e8a2e6d97e929a7e54011ea5485d7d196dd5f0ba4d4ef95803e8e3fc257f9080a4612097565b34610317576020366003190112610317576001600160a01b0361125a611ad9565b165f526007602052602060018060a01b0360405f205416604051908152f35b34610317575f36600319011261031757335f9081527f54cdd369e4e8a8515e52ca72ec816c2101831ad1f18bf44102ed171459c9b4f8602052604090205460ff1680156113b1575b15611357576112ce6123e5565b600160ff1960055416176005557f62e78cea01bee320cd4e420270b5ea74000d11b0c9f74754ebdbfc544b05a2586020604051338152a17f88313a379cb5333a1379fba0719d9d3a734fe6625681e0651edf4c8c105b5178608060405160408152600f60408201526e656d657267656e63795f706175736560881b6060820152426020820152a1005b60405162461bcd60e51b815260206004820152602c60248201527f46726565646f6d546f6b656e3a206d75737420686176652061646d696e206f7260448201526b2070617573657220726f6c6560a01b6064820152608490fd5b50335f9081527fe09f975e15f8f53f24cbbc282b13c40b84df485fcdb8d3997fa103dc5a4ef841602052604090205460ff166112c1565b34610317576020366003190112610317576104a1600435336121cc565b346103175760403660031901126103175761141e611ad9565b335f9081527f3195c024b2ddd6d9b8f6c836aa52f67fe69376c8903d009b80229b3ce4425f516020526040902054602435919060ff16156115a65761146161205f565b6001600160a01b03168015611594578115611055576002546b033b2e3c9fd0803ce80000006114908483611cbe565b11611568575061149e6123e5565b6114aa82600254611cbe565b600255806115525781600254036002555b805f7fddf252ad1be2c89b69c2b068fc378daa952ba7f163c4a11628f55a4df523b3ef6020604051868152a35f908152600760205260409020546001600160a01b031690811515808061154a575b6115205760015f5160206124015f395f51905f5255005b61152a5780610f86565b5f828152600860205260409020610fc4916001600160e01b03169061238a565b506001611509565b805f525f60205260405f208281540190556114bb565b8261157291611cbe565b637502c12360e11b5f526004526b033b2e3c9fd0803ce800000060245260445ffd5b634726455360e11b5f5260045260245ffd5b63e2517d3f60e01b5f52336004527f9f2df0fed2c77648de5860a4cc508cd0818c85b8b8a1ab4ceeef8d981c8956a660245260445ffd5b34610317575f366003190112610317576115f5611e35565b60055460ff8116156116345760ff19166005557f5db9ee0a495bf2e6ff9c91a7834c1ba4fdd244a5e8aa4e537bd38aeae4b073aa6020604051338152a1005b638dfc202b60e01b5f5260045ffd5b346103175760403660031901126103175761165c611ad9565b6024359043821015611686576020916108549160018060a01b03165f526008835260405f20611fc8565b60405162461bcd60e51b815260206004820152602160248201527f46726565646f6d546f6b656e3a20626c6f636b206e6f7420796574206d696e656044820152601960fa1b6064820152608490fd5b34610317576040366003190112610317576116ee611aef565b336001600160a01b0382160361170a576104a190600435611f44565b63334bd91960e11b5f5260045ffd5b34610317575f3660031901126103175760206040516b033b2e3c9fd0803ce80000008152f35b34610317575f36600319011261031757602060405160128152f35b34610317575f3660031901126103175760206040516a52b7d2dcc80cd2e40000008152f35b34610317576040366003190112610317576104a160043561179e611aef565b906117b8610497825f526006602052600160405f20015490565b611ebe565b34610317575f3660031901126103175760206040517f3c11d16cbaffd01df69ce1c404f6340ee057498f5f00246190ea54220576a8488152f35b346103175760203660031901126103175760206108546004355f526006602052600160405f20015490565b346103175760603660031901126103175761183b611ad9565b611843611aef565b6001600160a01b0382165f818152600160209081526040808320338452909152902054909260443592915f198110611881575b5061080c9350611d40565b8381106118e65784156118d35733156118c05761080c945f52600160205260405f2060018060a01b0333165f526020528360405f209103905584611876565b634a1406b160e11b5f525f60045260245ffd5b63e602df0560e01b5f525f60045260245ffd5b8390637dc7a0d960e11b5f523360045260245260445260645ffd5b34610317575f366003190112610317576020600254604051908152f35b3461031757604036600319011261031757611937611ad9565b6024359033156118d3576001600160a01b03169081156118c057335f52600160205260405f20825f526020528060405f20556040519081527f8c5be1e5ebec7d5bd14f71427d1e84f3dd0314c0f7b2291e5b200ac8c7c3b92560203392a3602060405160018152f35b34610317575f366003190112610317576040515f6003546119c081611b33565b808452906001811690811561091657506001146119e757610395836108a481850382611b87565b60035f9081527fc2575a0e9e593c00f959f8c92f12db2869c3395a3b0502d05e2516446f71f85b939250905b808210611a2b575090915081016020016108a4610894565b919260018160209254838588010152019101909291611a13565b34610317575f366003190112610317576020600d54604051908152f35b34610317576020366003190112610317576004359063ffffffff60e01b821680920361031757602091637965db0b60e01b8114908115611aa4575b5015158152f35b6301ffc9a760e01b14905083611a9d565b805180835260209291819084018484015e5f828201840152601f01601f1916010190565b600435906001600160a01b038216820361031757565b602435906001600160a01b038216820361031757565b9181601f840112156103175782359167ffffffffffffffff8311610317576020838186019501011161031757565b90600182811c92168015611b61575b6020831014611b4d57565b634e487b7160e01b5f52602260045260245ffd5b91607f1691611b42565b6040810190811067ffffffffffffffff821117610cd757604052565b90601f8019910116810190811067ffffffffffffffff821117610cd757604052565b9060405191825f825492611bbc84611b33565b8084529360018116908115611c275750600114611be3575b50611be192500383611b87565b565b90505f9291925260205f20905f915b818310611c0b575050906020611be1928201015f611bd4565b6020919350806001915483858901015201910190918492611bf2565b905060209250611be194915060ff191682840152151560051b8201015f611bd4565b94989796939060e09693611c8b93611c7d92885260018060a01b031660208801526101006040880152610100870190611ab5565b908582036060870152611ab5565b966080840152151560a083015260c08201520152565b34610317575f36600319011261031757602060405162093a808152f35b919082018092116102dd57565b8054821015611ce0575f5260205f2001905f90565b634e487b7160e01b5f52603260045260245ffd5b6001600160a01b03165f81815260086020526040902054908115611d3a575f52600860205260405f20905f1981019081116102dd57611d3291611ccb565b505460201c90565b50505f90565b6001600160a01b03169291908315611e22576001600160a01b03168015611e0f57611d696123e5565b835f525f60205260405f2054828110611df4579382611be19495825f525f6020520360405f2055815f525f60205260405f2083815401905581817fddf252ad1be2c89b69c2b068fc378daa952ba7f163c4a11628f55a4df523b3ef6020604051878152a35f90815260076020526040808220549282529020546001600160a01b039081169116612097565b90508363391434e360e21b5f5260045260245260445260645ffd5b63ec442f0560e01b5f525f60045260245ffd5b634b637e8f60e11b5f525f60045260245ffd5b335f9081527f54cdd369e4e8a8515e52ca72ec816c2101831ad1f18bf44102ed171459c9b4f8602052604090205460ff1615611e6d57565b63e2517d3f60e01b5f52336004525f60245260445ffd5b5f81815260066020908152604080832033845290915290205460ff1615611ea85750565b63e2517d3f60e01b5f523360045260245260445ffd5b5f8181526006602090815260408083206001600160a01b038616845290915290205460ff16611d3a575f8181526006602090815260408083206001600160a01b0395909516808452949091528120805460ff19166001179055339291907f2f8788117e7eff1d82e926ec794901d17c78024a50270940304540a733656f0d9080a4600190565b5f8181526006602090815260408083206001600160a01b038616845290915290205460ff1615611d3a575f8181526006602090815260408083206001600160a01b0395909516808452949091528120805460ff19169055339291907ff6391f5c32d9c69d2a47ea670b442974b53935d1edc7fd64eb21e047a839171b9080a4600190565b908154905f905b82821061200b57505080611fed5750505f5b6001600160e01b031690565b5f1981019081116102dd5761200191611ccb565b505460201c611fe1565b90916120178184611cbe565b60011c908263ffffffff61202b8488611ccb565b505416111561203d5750915b90611fcf565b9250600181018091111561203757634e487b7160e01b5f52601160045260245ffd5b60025f5160206124015f395f51905f5254146120885760025f5160206124015f395f51905f5255565b633ee5aeb560e01b5f5260045ffd5b6001600160a01b039182169291169081831415806121c3575b6120b957505050565b6001600160e01b03169080612146575b50816120d4575b5050565b6120e990825f52600860205260405f2061238a565b815f5260086020526120fe8160405f20611ccb565b50915f52600960205263ffffffff60405f2091165f5260205260405f20818103156120d0578154815463ffffffff90911663ffffffff19918216811783559254169091179055565b805f52600860205261215b8260405f20612270565b815f5260086020526121708160405f20611ccb565b50915f52600960205263ffffffff60405f2091165f5260205260405f2081810361219b575b506120c9565b8154815463ffffffff90911663ffffffff199182168117835592541690911790555f80612195565b508015156120b0565b9091906001600160a01b03168015611e22576121e66123e5565b805f525f60205260405f205483811061223e576020845f94957fddf252ad1be2c89b69c2b068fc378daa952ba7f163c4a11628f55a4df523b3ef938587528684520360408620558060025403600255604051908152a3565b915063391434e360e21b5f5260045260245260445260645ffd5b63ffffffff5f199116019063ffffffff82116102dd57565b91906001600160e01b036122844385611fc8565b6001600160e01b039283169116039081116102dd57825463ffffffff811693916001600160e01b03169084151580612362575b156122eb57506122d3611be1926122cd86612258565b90611ccb565b509063ffffffff82549181199060201b169116179055565b91604051926122f984611b6b565b63ffffffff431684526020840192835268010000000000000000811015610cd75761232991600182018155611ccb565b91909161234f579151915160201b63ffffffff191663ffffffff92909216919091179055565b634e487b7160e01b5f525f60045260245ffd5b5063ffffffff61237a61237487612258565b85611ccb565b50541663ffffffff4316146122b7565b91906001600160e01b0361239e4385611fc8565b166001600160e01b03918216019081116102dd57825463ffffffff811693916001600160e01b0316908415158061236257156122eb57506122d3611be1926122cd86612258565b60ff600554166123f157565b63d93c066560e01b5f5260045ffdfe9b779b17422d0df92223018b32b4d1fa46e071723d6817e2486d003becc55f00a2646970667358221220b4155260b6080b17f002437988980d4a221932f36087f970a122220ea7af9d8464736f6c634300082100332f8788117e7eff1d82e926ec794901d17c78024a50270940304540a733656f0d42d20fd6db25ea5a8e33f43724ad72f2ebd9488257fa78c86176b8175fc383fa3195c024b2ddd6d9b8f6c836aa52f67fe69376c8903d009b80229b3ce4425f51e09f975e15f8f53f24cbbc282b13c40b84df485fcdb8d3997fa103dc5a4ef8416b421dd1b82a30a3bd47429070c18d0c2e0bdee780f24e0d080b79732c647a0721b746f97e1679a3e88a18d3dec6befa7bbc6f2977a2ecb1c7917139835d6aee54cdd369e4e8a8515e52ca72ec816c2101831ad1f18bf44102ed171459c9b4f8","linkReferences":{}},"methodIdentifiers":{"AI_CONTROLLER_ROLE()":"66975a48","AI_PROPOSAL_THRESHOLD()":"d6b493c5","AI_VOTING_PERIOD()":"afb73d62","BURNER_ROLE()":"282c51f3","DEFAULT_ADMIN_ROLE()":"a217fddf","INITIAL_SUPPLY()":"2ff2e9dc","MAX_STAKE_DURATION()":"aa902b4d","MAX_SUPPLY()":"32cb6b0c","MINTER_ROLE()":"d5391393","MIN_STAKE_DURATION()":"e0c570ba","PAUSER_ROLE()":"e63ab1e9","TREASURY_ROLE()":"d11a57ec","aiProposalCount()":"0442f29e","aiProposals(uint256)":"941561d8","allowance(address,address)":"dd62ed3e","approve(address,uint256)":"095ea7b3","balanceOf(address)":"70a08231","burn(uint256)":"42966c68","burnFrom(address,uint256)":"79cc6790","createAIProposal(string,string)":"9127a01e","decimals()":"313ce567","delegate(address)":"5c19a95c","delegates(address)":"587cde1e","emergencyPause()":"51858e27","emergencyTokenRecovery(address,uint256)":"b49b0cb3","executeAIProposal(uint256)":"fa84aed0","getAIProposal(uint256)":"f4347756","getPastVotes(address,uint256)":"3a46b1a8","getRoleAdmin(bytes32)":"248a9ca3","getVotes(address)":"9ab24eb0","grantRole(bytes32,address)":"2f2ff15d","hasRole(bytes32,address)":"91d14854","mint(address,uint256)":"40c10f19","name()":"06fdde03","pause()":"8456cb59","paused()":"5c975abb","renounceRole(bytes32,address)":"36568abe","revokeRole(bytes32,address)":"d547741f","stakeStartTime(address)":"6985e6d8","stakedBalance(address)":"60217267","supportsInterface(bytes4)":"01ffc9a7","symbol()":"95d89b41","totalSupply()":"18160ddd","transfer(address,uint256)":"a9059cbb","transferFrom(address,address,uint256)":"23b872dd","unpause()":"3f4ba83a","voteOnAIProposal(uint256,bool)":"c967eaaa"},"id":1}